{
  "contracts/LearnWayPOC.sol": {
    "LearnWayPOC": {
      "abi": [
        {
          "inputs": [
            {
              "internalType": "address",
              "name": "_lwtAddress",
              "type": "address"
            }
          ],
          "stateMutability": "nonpayable",
          "type": "constructor"
        },
        {
          "inputs": [
            {
              "internalType": "enum LearnWayPOC.QuizState",
              "name": "_state",
              "type": "uint8"
            }
          ],
          "name": "InvalidState",
          "type": "error"
        },
        {
          "inputs": [],
          "name": "InvalidTotalStake",
          "type": "error"
        },
        {
          "inputs": [],
          "name": "InvalidWinner",
          "type": "error"
        },
        {
          "inputs": [],
          "name": "InvariantCheckFailed",
          "type": "error"
        },
        {
          "inputs": [],
          "name": "IsParticipant",
          "type": "error"
        },
        {
          "inputs": [],
          "name": "NotParticipant",
          "type": "error"
        },
        {
          "inputs": [
            {
              "internalType": "address",
              "name": "owner",
              "type": "address"
            }
          ],
          "name": "OwnableInvalidOwner",
          "type": "error"
        },
        {
          "inputs": [
            {
              "internalType": "address",
              "name": "account",
              "type": "address"
            }
          ],
          "name": "OwnableUnauthorizedAccount",
          "type": "error"
        },
        {
          "inputs": [],
          "name": "ParticipantAlreadySubmitted",
          "type": "error"
        },
        {
          "inputs": [],
          "name": "QuizExists",
          "type": "error"
        },
        {
          "inputs": [],
          "name": "QuizMissing",
          "type": "error"
        },
        {
          "inputs": [
            {
              "internalType": "address",
              "name": "token",
              "type": "address"
            }
          ],
          "name": "SafeERC20FailedOperation",
          "type": "error"
        },
        {
          "inputs": [],
          "name": "ZeroAddress",
          "type": "error"
        },
        {
          "inputs": [],
          "name": "ZeroNumber",
          "type": "error"
        },
        {
          "anonymous": false,
          "inputs": [
            {
              "indexed": true,
              "internalType": "address",
              "name": "previousOwner",
              "type": "address"
            },
            {
              "indexed": true,
              "internalType": "address",
              "name": "newOwner",
              "type": "address"
            }
          ],
          "name": "OwnershipTransferred",
          "type": "event"
        },
        {
          "anonymous": false,
          "inputs": [
            {
              "indexed": false,
              "internalType": "bytes32",
              "name": "quizHash",
              "type": "bytes32"
            },
            {
              "indexed": false,
              "internalType": "enum LearnWayPOC.QuizState",
              "name": "state",
              "type": "uint8"
            },
            {
              "indexed": false,
              "internalType": "address",
              "name": "participant",
              "type": "address"
            },
            {
              "indexed": false,
              "internalType": "uint256",
              "name": "score",
              "type": "uint256"
            }
          ],
          "name": "PartipantEvaluated",
          "type": "event"
        },
        {
          "anonymous": false,
          "inputs": [
            {
              "indexed": false,
              "internalType": "bytes32",
              "name": "quizHash",
              "type": "bytes32"
            },
            {
              "indexed": false,
              "internalType": "enum LearnWayPOC.QuizState",
              "name": "state",
              "type": "uint8"
            },
            {
              "indexed": false,
              "internalType": "address",
              "name": "participant",
              "type": "address"
            }
          ],
          "name": "PartipantJoined",
          "type": "event"
        },
        {
          "anonymous": false,
          "inputs": [
            {
              "indexed": false,
              "internalType": "bytes32",
              "name": "quizHash",
              "type": "bytes32"
            },
            {
              "indexed": false,
              "internalType": "enum LearnWayPOC.QuizState",
              "name": "state",
              "type": "uint8"
            },
            {
              "indexed": false,
              "internalType": "address",
              "name": "winner",
              "type": "address"
            },
            {
              "indexed": false,
              "internalType": "uint256",
              "name": "won",
              "type": "uint256"
            },
            {
              "indexed": false,
              "internalType": "uint256",
              "name": "fee",
              "type": "uint256"
            }
          ],
          "name": "QuizClosed",
          "type": "event"
        },
        {
          "anonymous": false,
          "inputs": [
            {
              "indexed": false,
              "internalType": "bytes32",
              "name": "quizHash",
              "type": "bytes32"
            },
            {
              "indexed": false,
              "internalType": "enum LearnWayPOC.QuizState",
              "name": "state",
              "type": "uint8"
            },
            {
              "indexed": false,
              "internalType": "address",
              "name": "operator",
              "type": "address"
            },
            {
              "indexed": false,
              "internalType": "uint256",
              "name": "entryFee",
              "type": "uint256"
            },
            {
              "indexed": false,
              "internalType": "uint256",
              "name": "joinTime",
              "type": "uint256"
            },
            {
              "indexed": false,
              "internalType": "uint256",
              "name": "endTime",
              "type": "uint256"
            },
            {
              "indexed": false,
              "internalType": "uint256",
              "name": "submitTime",
              "type": "uint256"
            }
          ],
          "name": "QuizOpened",
          "type": "event"
        },
        {
          "inputs": [],
          "name": "accumulatedFee",
          "outputs": [
            {
              "internalType": "uint256",
              "name": "",
              "type": "uint256"
            }
          ],
          "stateMutability": "view",
          "type": "function"
        },
        {
          "inputs": [],
          "name": "adminFeeBps",
          "outputs": [
            {
              "internalType": "uint256",
              "name": "",
              "type": "uint256"
            }
          ],
          "stateMutability": "view",
          "type": "function"
        },
        {
          "inputs": [
            {
              "internalType": "bytes32",
              "name": "_quizHash",
              "type": "bytes32"
            }
          ],
          "name": "closeQuiz",
          "outputs": [],
          "stateMutability": "nonpayable",
          "type": "function"
        },
        {
          "inputs": [],
          "name": "entryFee",
          "outputs": [
            {
              "internalType": "uint256",
              "name": "",
              "type": "uint256"
            }
          ],
          "stateMutability": "view",
          "type": "function"
        },
        {
          "inputs": [],
          "name": "feeAddress",
          "outputs": [
            {
              "internalType": "address",
              "name": "",
              "type": "address"
            }
          ],
          "stateMutability": "view",
          "type": "function"
        },
        {
          "inputs": [],
          "name": "joinPeriod",
          "outputs": [
            {
              "internalType": "uint256",
              "name": "",
              "type": "uint256"
            }
          ],
          "stateMutability": "view",
          "type": "function"
        },
        {
          "inputs": [
            {
              "internalType": "bytes32",
              "name": "_quizHash",
              "type": "bytes32"
            }
          ],
          "name": "joinQuiz",
          "outputs": [],
          "stateMutability": "nonpayable",
          "type": "function"
        },
        {
          "inputs": [],
          "name": "lwt",
          "outputs": [
            {
              "internalType": "contract IERC20",
              "name": "",
              "type": "address"
            }
          ],
          "stateMutability": "view",
          "type": "function"
        },
        {
          "inputs": [],
          "name": "owner",
          "outputs": [
            {
              "internalType": "address",
              "name": "",
              "type": "address"
            }
          ],
          "stateMutability": "view",
          "type": "function"
        },
        {
          "inputs": [
            {
              "internalType": "bytes32",
              "name": "",
              "type": "bytes32"
            },
            {
              "internalType": "address",
              "name": "",
              "type": "address"
            }
          ],
          "name": "participants",
          "outputs": [
            {
              "internalType": "bool",
              "name": "playing",
              "type": "bool"
            },
            {
              "internalType": "uint256",
              "name": "score",
              "type": "uint256"
            }
          ],
          "stateMutability": "view",
          "type": "function"
        },
        {
          "inputs": [],
          "name": "quizDuration",
          "outputs": [
            {
              "internalType": "uint256",
              "name": "",
              "type": "uint256"
            }
          ],
          "stateMutability": "view",
          "type": "function"
        },
        {
          "inputs": [
            {
              "internalType": "bytes32",
              "name": "",
              "type": "bytes32"
            }
          ],
          "name": "quizzes",
          "outputs": [
            {
              "internalType": "uint256",
              "name": "participants",
              "type": "uint256"
            },
            {
              "internalType": "uint256",
              "name": "highestScore",
              "type": "uint256"
            },
            {
              "internalType": "uint256",
              "name": "totalStake",
              "type": "uint256"
            },
            {
              "internalType": "uint256",
              "name": "entryFee",
              "type": "uint256"
            },
            {
              "internalType": "address",
              "name": "topScorer",
              "type": "address"
            },
            {
              "internalType": "address",
              "name": "operator",
              "type": "address"
            },
            {
              "internalType": "uint256",
              "name": "joinTime",
              "type": "uint256"
            },
            {
              "internalType": "uint256",
              "name": "endTime",
              "type": "uint256"
            },
            {
              "internalType": "uint256",
              "name": "submitTime",
              "type": "uint256"
            },
            {
              "internalType": "enum LearnWayPOC.QuizState",
              "name": "state",
              "type": "uint8"
            },
            {
              "internalType": "bytes32",
              "name": "offchianHash",
              "type": "bytes32"
            }
          ],
          "stateMutability": "view",
          "type": "function"
        },
        {
          "inputs": [],
          "name": "renounceOwnership",
          "outputs": [],
          "stateMutability": "nonpayable",
          "type": "function"
        },
        {
          "inputs": [
            {
              "internalType": "bytes32",
              "name": "_quizHash",
              "type": "bytes32"
            }
          ],
          "name": "startQuiz",
          "outputs": [],
          "stateMutability": "nonpayable",
          "type": "function"
        },
        {
          "inputs": [],
          "name": "submitPeriod",
          "outputs": [
            {
              "internalType": "uint256",
              "name": "",
              "type": "uint256"
            }
          ],
          "stateMutability": "view",
          "type": "function"
        },
        {
          "inputs": [
            {
              "internalType": "bytes32",
              "name": "_quizHash",
              "type": "bytes32"
            },
            {
              "internalType": "uint256",
              "name": "_score",
              "type": "uint256"
            }
          ],
          "name": "submitScore",
          "outputs": [],
          "stateMutability": "nonpayable",
          "type": "function"
        },
        {
          "inputs": [
            {
              "internalType": "address",
              "name": "newOwner",
              "type": "address"
            }
          ],
          "name": "transferOwnership",
          "outputs": [],
          "stateMutability": "nonpayable",
          "type": "function"
        }
      ],
      "evm": {
        "bytecode": {
          "linkReferences": {},
          "object": "60806040526101f46001556802b5e3af16b188000060025561012c600355610384600455610258600555600060065534801561003a57600080fd5b506040516124dc3803806124dc833981810160405281019061005c919061028e565b33600073ffffffffffffffffffffffffffffffffffffffff168173ffffffffffffffffffffffffffffffffffffffff16036100cf5760006040517f1e4fbdf70000000000000000000000000000000000000000000000000000000081526004016100c691906102ca565b60405180910390fd5b6100de8161016760201b60201c565b5080600860006101000a81548173ffffffffffffffffffffffffffffffffffffffff021916908373ffffffffffffffffffffffffffffffffffffffff16021790555033600760006101000a81548173ffffffffffffffffffffffffffffffffffffffff021916908373ffffffffffffffffffffffffffffffffffffffff160217905550506102e5565b60008060009054906101000a900473ffffffffffffffffffffffffffffffffffffffff169050816000806101000a81548173ffffffffffffffffffffffffffffffffffffffff021916908373ffffffffffffffffffffffffffffffffffffffff1602179055508173ffffffffffffffffffffffffffffffffffffffff168173ffffffffffffffffffffffffffffffffffffffff167f8be0079c531659141344cd1fd0a4f28419497f9722a3daafe3b4186f6b6457e060405160405180910390a35050565b600080fd5b600073ffffffffffffffffffffffffffffffffffffffff82169050919050565b600061025b82610230565b9050919050565b61026b81610250565b811461027657600080fd5b50565b60008151905061028881610262565b92915050565b6000602082840312156102a4576102a361022b565b5b60006102b284828501610279565b91505092915050565b6102c481610250565b82525050565b60006020820190506102df60008301846102bb565b92915050565b6121e8806102f46000396000f3fe608060405234801561001057600080fd5b506004361061010b5760003560e01c80638da5cb5b116100a2578063b22a10d211610071578063b22a10d21461028b578063b514832d146102a9578063e6f0681c146102c7578063f2fde38b146102e5578063f8ce3164146103015761010b565b80638da5cb5b146102025780639c770b7914610220578063a63ed2e41461023c578063a79a2c781461025a5761010b565b8063512fed43116100de578063512fed43146101a45780635f49bde3146101c0578063694d3d38146101dc578063715018a6146101f85761010b565b8063072ea61c14610110578063412753581461012e5780634a91466e1461014c5780634e5500be14610186575b600080fd5b61011861031f565b6040516101259190611adc565b60405180910390f35b610136610325565b6040516101439190611b38565b60405180910390f35b61016660048036038101906101619190611b8e565b61034b565b60405161017d9b9a99989796959493929190611c41565b60405180910390f35b61018e6103f2565b60405161019b9190611adc565b60405180910390f35b6101be60048036038101906101b99190611d18565b6103f8565b005b6101da60048036038101906101d59190611b8e565b61075c565b005b6101f660048036038101906101f19190611b8e565b6109ec565b005b610200610cc3565b005b61020a610cd7565b6040516102179190611b38565b60405180910390f35b61023a60048036038101906102359190611b8e565b610d00565b005b6102446110d7565b6040516102519190611db7565b60405180910390f35b610274600480360381019061026f9190611dfe565b6110fd565b604051610282929190611e59565b60405180910390f35b61029361113b565b6040516102a09190611adc565b60405180910390f35b6102b1611141565b6040516102be9190611adc565b60405180910390f35b6102cf611147565b6040516102dc9190611adc565b60405180910390f35b6102ff60048036038101906102fa9190611e82565b61114d565b005b6103096111d3565b6040516103169190611adc565b60405180910390f35b60025481565b600760009054906101000a900473ffffffffffffffffffffffffffffffffffffffff1681565b60096020528060005260406000206000915090508060000154908060010154908060020154908060030154908060040160009054906101000a900473ffffffffffffffffffffffffffffffffffffffff16908060050160009054906101000a900473ffffffffffffffffffffffffffffffffffffffff16908060060154908060070154908060080154908060090160009054906101000a900460ff169080600a015490508b565b60055481565b816000600960008381526020019081526020016000206000015403610449576040517f35a71ca300000000000000000000000000000000000000000000000000000000815260040160405180910390fd5b8160008103610484576040517f99d1d12f00000000000000000000000000000000000000000000000000000000815260040160405180910390fd5b83600380600481111561049a57610499611bbb565b5b6104a3836111d9565b60048111156104b5576104b4611bbb565b5b146104ff576104c3826111d9565b6040517fd07e89760000000000000000000000000000000000000000000000000000000081526004016104f69190611eaf565b60405180910390fd5b8533600a600083815260200190815260200160002060008273ffffffffffffffffffffffffffffffffffffffff1673ffffffffffffffffffffffffffffffffffffffff16815260200190815260200160002060000160009054906101000a900460ff16610598576040517fe438f8ce00000000000000000000000000000000000000000000000000000000815260040160405180910390fd5b6000600a60008a815260200190815260200160002060003373ffffffffffffffffffffffffffffffffffffffff1673ffffffffffffffffffffffffffffffffffffffff168152602001908152602001600020600101541115610626576040517fd75b177c00000000000000000000000000000000000000000000000000000000815260040160405180910390fd5b86600a60008a815260200190815260200160002060003373ffffffffffffffffffffffffffffffffffffffff1673ffffffffffffffffffffffffffffffffffffffff16815260200190815260200160002060010181905550600960008981526020019081526020016000206001015487111561070d5786600960008a81526020019081526020016000206001018190555033600960008a815260200190815260200160002060040160006101000a81548173ffffffffffffffffffffffffffffffffffffffff021916908373ffffffffffffffffffffffffffffffffffffffff1602179055505b7f360d43592906a5460df7b695e84d2d0c4d4b29c343cdb9ff69fd7fa1ecb29a99886107388a6111d9565b338a60405161074a9493929190611eca565b60405180910390a15050505050505050565b80600480600481111561077257610771611bbb565b5b61077b836111d9565b600481111561078d5761078c611bbb565b5b146107d75761079b826111d9565b6040517fd07e89760000000000000000000000000000000000000000000000000000000081526004016107ce9190611eaf565b60405180910390fd5b60026009600085815260200190815260200160002060090160006101000a81548160ff0219169083600481111561081157610810611bbb565b5b0217905550600073ffffffffffffffffffffffffffffffffffffffff166009600085815260200190815260200160002060040160009054906101000a900473ffffffffffffffffffffffffffffffffffffffff1673ffffffffffffffffffffffffffffffffffffffff16036108b2576040517f93a5f3c700000000000000000000000000000000000000000000000000000000815260040160405180910390fd5b6000600960008581526020019081526020016000206002015403610902576040517f6c976dd700000000000000000000000000000000000000000000000000000000815260040160405180910390fd5b60008061092460096000878152602001908152602001600020600201546112cb565b91509150610968816009600088815260200190815260200160002060040160009054906101000a900473ffffffffffffffffffffffffffffffffffffffff16611308565b7f78f25bb1dd175524204d4cf9d8d0490199987db861fc9f2e4a629d9d2e43f2e285610993876111d9565b6009600089815260200190815260200160002060040160009054906101000a900473ffffffffffffffffffffffffffffffffffffffff1684866040516109dd959493929190611f0f565b60405180910390a15050505050565b806000600960008381526020019081526020016000206000015403610a3d576040517f35a71ca300000000000000000000000000000000000000000000000000000000815260040160405180910390fd5b816000806004811115610a5357610a52611bbb565b5b610a5c836111d9565b6004811115610a6e57610a6d611bbb565b5b14610ab857610a7c826111d9565b6040517fd07e8976000000000000000000000000000000000000000000000000000000008152600401610aaf9190611eaf565b60405180910390fd5b8333600a600083815260200190815260200160002060008273ffffffffffffffffffffffffffffffffffffffff1673ffffffffffffffffffffffffffffffffffffffff16815260200190815260200160002060000160009054906101000a900460ff1615610b52576040517f79e72c6d00000000000000000000000000000000000000000000000000000000815260040160405180910390fd5b6001600960008881526020019081526020016000206000016000828254610b799190611f91565b925050819055506009600087815260200190815260200160002060030154600960008881526020019081526020016000206002016000828254610bbc9190611f91565b9250508190555060405180604001604052806001151581526020016000815250600a600088815260200190815260200160002060003373ffffffffffffffffffffffffffffffffffffffff1673ffffffffffffffffffffffffffffffffffffffff16815260200190815260200160002060008201518160000160006101000a81548160ff02191690831515021790555060208201518160010155905050610c7860096000888152602001908152602001600020600301546114bf565b7fbe1008cdc58e311be2a6a335b4c907ee1e8d2bb0e88f857ca30c0805c0b73ef986610ca3886111d9565b33604051610cb393929190611fc5565b60405180910390a1505050505050565b610ccb611676565b610cd560006116fd565b565b60008060009054906101000a900473ffffffffffffffffffffffffffffffffffffffff16905090565b80600060096000838152602001908152602001600020600001541115610d52576040517f87aa7d5100000000000000000000000000000000000000000000000000000000815260040160405180910390fd5b604051806101600160405280600181526020016000815260200160025481526020016002548152602001600073ffffffffffffffffffffffffffffffffffffffff1681526020013373ffffffffffffffffffffffffffffffffffffffff16815260200160035442610dc39190611f91565b815260200160045460035442610dd99190611f91565b610de39190611f91565b815260200160055460045460035442610dfc9190611f91565b610e069190611f91565b610e109190611f91565b815260200160006004811115610e2957610e28611bbb565b5b815260200183815250600960008481526020019081526020016000206000820151816000015560208201518160010155604082015181600201556060820151816003015560808201518160040160006101000a81548173ffffffffffffffffffffffffffffffffffffffff021916908373ffffffffffffffffffffffffffffffffffffffff16021790555060a08201518160050160006101000a81548173ffffffffffffffffffffffffffffffffffffffff021916908373ffffffffffffffffffffffffffffffffffffffff16021790555060c0820151816006015560e0820151816007015561010082015181600801556101208201518160090160006101000a81548160ff02191690836004811115610f4657610f45611bbb565b5b021790555061014082015181600a015590505060405180604001604052806001151581526020016000815250600a600084815260200190815260200160002060003373ffffffffffffffffffffffffffffffffffffffff1673ffffffffffffffffffffffffffffffffffffffff16815260200190815260200160002060008201518160000160006101000a81548160ff02191690831515021790555060208201518160010155905050610ffa6002546114bf565b7ffac69218d604aa73b5bed690e8bb8bea0e6f1672eb10ac50ea0dfebf94fd324082611025846111d9565b6009600086815260200190815260200160002060050160009054906101000a900473ffffffffffffffffffffffffffffffffffffffff16600960008781526020019081526020016000206003015460096000888152602001908152602001600020600601546009600089815260200190815260200160002060070154600960008a8152602001908152602001600020600801546040516110cb9796959493929190611ffc565b60405180910390a15050565b600860009054906101000a900473ffffffffffffffffffffffffffffffffffffffff1681565b600a602052816000526040600020602052806000526040600020600091509150508060000160009054906101000a900460ff16908060010154905082565b60045481565b60035481565b60015481565b611155611676565b600073ffffffffffffffffffffffffffffffffffffffff168173ffffffffffffffffffffffffffffffffffffffff16036111c75760006040517f1e4fbdf70000000000000000000000000000000000000000000000000000000081526004016111be9190611b38565b60405180910390fd5b6111d0816116fd565b50565b60065481565b60008060048111156111ee576111ed611bbb565b5b6009600084815260200190815260200160002060090160009054906101000a900460ff16600481111561122457611223611bbb565b5b0361129f57600960008381526020019081526020016000206006015442111561129e57600960008381526020019081526020016000206007015442101561126e57600190506112c6565b600960008381526020019081526020016000206008015442101561129557600390506112c6565b600490506112c6565b5b6009600083815260200190815260200160002060090160009054906101000a900460ff1690505b919050565b6000806112da836001546117c1565b915081600660008282546112ee9190611f91565b925050819055508183611301919061206b565b9050915091565b6000600860009054906101000a900473ffffffffffffffffffffffffffffffffffffffff1673ffffffffffffffffffffffffffffffffffffffff166370a08231306040518263ffffffff1660e01b81526004016113659190611b38565b602060405180830381865afa158015611382573d6000803e3d6000fd5b505050506040513d601f19601f820116820180604052508101906113a691906120b4565b90506113d5600860009054906101000a900473ffffffffffffffffffffffffffffffffffffffff1683856117f2565b6000600860009054906101000a900473ffffffffffffffffffffffffffffffffffffffff1673ffffffffffffffffffffffffffffffffffffffff166370a08231306040518263ffffffff1660e01b81526004016114329190611b38565b602060405180830381865afa15801561144f573d6000803e3d6000fd5b505050506040513d601f19601f8201168201806040525081019061147391906120b4565b9050838183611482919061206b565b146114b9576040517f8e7572da00000000000000000000000000000000000000000000000000000000815260040160405180910390fd5b50505050565b6000600860009054906101000a900473ffffffffffffffffffffffffffffffffffffffff1673ffffffffffffffffffffffffffffffffffffffff166370a08231306040518263ffffffff1660e01b815260040161151c9190611b38565b602060405180830381865afa158015611539573d6000803e3d6000fd5b505050506040513d601f19601f8201168201806040525081019061155d91906120b4565b905061158d600860009054906101000a900473ffffffffffffffffffffffffffffffffffffffff16333085611871565b6000600860009054906101000a900473ffffffffffffffffffffffffffffffffffffffff1673ffffffffffffffffffffffffffffffffffffffff166370a08231306040518263ffffffff1660e01b81526004016115ea9190611b38565b602060405180830381865afa158015611607573d6000803e3d6000fd5b505050506040513d601f19601f8201168201806040525081019061162b91906120b4565b905082828261163a919061206b565b14611671576040517f8e7572da00000000000000000000000000000000000000000000000000000000815260040160405180910390fd5b505050565b61167e6118f3565b73ffffffffffffffffffffffffffffffffffffffff1661169c610cd7565b73ffffffffffffffffffffffffffffffffffffffff16146116fb576116bf6118f3565b6040517f118cdaa70000000000000000000000000000000000000000000000000000000081526004016116f29190611b38565b60405180910390fd5b565b60008060009054906101000a900473ffffffffffffffffffffffffffffffffffffffff169050816000806101000a81548173ffffffffffffffffffffffffffffffffffffffff021916908373ffffffffffffffffffffffffffffffffffffffff1602179055508173ffffffffffffffffffffffffffffffffffffffff168173ffffffffffffffffffffffffffffffffffffffff167f8be0079c531659141344cd1fd0a4f28419497f9722a3daafe3b4186f6b6457e060405160405180910390a35050565b600061271082846117d291906120e1565b10156117dd57600080fd5b6117ea83836127106118fb565b905092915050565b61186c838473ffffffffffffffffffffffffffffffffffffffff1663a9059cbb8585604051602401611825929190612123565b604051602081830303815290604052915060e01b6020820180517bffffffffffffffffffffffffffffffffffffffffffffffffffffffff83818316178352505050506119e9565b505050565b6118ed848573ffffffffffffffffffffffffffffffffffffffff166323b872dd8686866040516024016118a69392919061214c565b604051602081830303815290604052915060e01b6020820180517bffffffffffffffffffffffffffffffffffffffffffffffffffffffff83818316178352505050506119e9565b50505050565b600033905090565b60008083850290506000801985870982811083820303915050600081036119365783828161192c5761192b612183565b5b04925050506119e2565b808411611956576119556119506000861460126011611a8b565b611aa5565b5b600084868809905082811182039150808303925060008560000386169050808604955080840493506001818260000304019050808302841793506000600287600302189050808702600203810290508087026002038102905080870260020381029050808702600203810290508087026002038102905080870260020381029050808502955050505050505b9392505050565b600080602060008451602086016000885af180611a0c576040513d6000823e3d81fd5b3d925060005191505060008214611a27576001811415611a43565b60008473ffffffffffffffffffffffffffffffffffffffff163b145b15611a8557836040517f5274afe7000000000000000000000000000000000000000000000000000000008152600401611a7c9190611b38565b60405180910390fd5b50505050565b6000611a9684611ab7565b82841802821890509392505050565b634e487b71600052806020526024601cfd5b60008115159050919050565b6000819050919050565b611ad681611ac3565b82525050565b6000602082019050611af16000830184611acd565b92915050565b600073ffffffffffffffffffffffffffffffffffffffff82169050919050565b6000611b2282611af7565b9050919050565b611b3281611b17565b82525050565b6000602082019050611b4d6000830184611b29565b92915050565b600080fd5b6000819050919050565b611b6b81611b58565b8114611b7657600080fd5b50565b600081359050611b8881611b62565b92915050565b600060208284031215611ba457611ba3611b53565b5b6000611bb284828501611b79565b91505092915050565b7f4e487b7100000000000000000000000000000000000000000000000000000000600052602160045260246000fd5b60058110611bfb57611bfa611bbb565b5b50565b6000819050611c0c82611bea565b919050565b6000611c1c82611bfe565b9050919050565b611c2c81611c11565b82525050565b611c3b81611b58565b82525050565b600061016082019050611c57600083018e611acd565b611c64602083018d611acd565b611c71604083018c611acd565b611c7e606083018b611acd565b611c8b608083018a611b29565b611c9860a0830189611b29565b611ca560c0830188611acd565b611cb260e0830187611acd565b611cc0610100830186611acd565b611cce610120830185611c23565b611cdc610140830184611c32565b9c9b505050505050505050505050565b611cf581611ac3565b8114611d0057600080fd5b50565b600081359050611d1281611cec565b92915050565b60008060408385031215611d2f57611d2e611b53565b5b6000611d3d85828601611b79565b9250506020611d4e85828601611d03565b9150509250929050565b6000819050919050565b6000611d7d611d78611d7384611af7565b611d58565b611af7565b9050919050565b6000611d8f82611d62565b9050919050565b6000611da182611d84565b9050919050565b611db181611d96565b82525050565b6000602082019050611dcc6000830184611da8565b92915050565b611ddb81611b17565b8114611de657600080fd5b50565b600081359050611df881611dd2565b92915050565b60008060408385031215611e1557611e14611b53565b5b6000611e2385828601611b79565b9250506020611e3485828601611de9565b9150509250929050565b60008115159050919050565b611e5381611e3e565b82525050565b6000604082019050611e6e6000830185611e4a565b611e7b6020830184611acd565b9392505050565b600060208284031215611e9857611e97611b53565b5b6000611ea684828501611de9565b91505092915050565b6000602082019050611ec46000830184611c23565b92915050565b6000608082019050611edf6000830187611c32565b611eec6020830186611c23565b611ef96040830185611b29565b611f066060830184611acd565b95945050505050565b600060a082019050611f246000830188611c32565b611f316020830187611c23565b611f3e6040830186611b29565b611f4b6060830185611acd565b611f586080830184611acd565b9695505050505050565b7f4e487b7100000000000000000000000000000000000000000000000000000000600052601160045260246000fd5b6000611f9c82611ac3565b9150611fa783611ac3565b9250828201905080821115611fbf57611fbe611f62565b5b92915050565b6000606082019050611fda6000830186611c32565b611fe76020830185611c23565b611ff46040830184611b29565b949350505050565b600060e082019050612011600083018a611c32565b61201e6020830189611c23565b61202b6040830188611b29565b6120386060830187611acd565b6120456080830186611acd565b61205260a0830185611acd565b61205f60c0830184611acd565b98975050505050505050565b600061207682611ac3565b915061208183611ac3565b925082820390508181111561209957612098611f62565b5b92915050565b6000815190506120ae81611cec565b92915050565b6000602082840312156120ca576120c9611b53565b5b60006120d88482850161209f565b91505092915050565b60006120ec82611ac3565b91506120f783611ac3565b925082820261210581611ac3565b9150828204841483151761211c5761211b611f62565b5b5092915050565b60006040820190506121386000830185611b29565b6121456020830184611acd565b9392505050565b60006060820190506121616000830186611b29565b61216e6020830185611b29565b61217b6040830184611acd565b949350505050565b7f4e487b7100000000000000000000000000000000000000000000000000000000600052601260045260246000fdfea26469706673582212209459b296cba99cbf97c6f0929009aa1f6752e0477780911f590586b7ee9a5a0b64736f6c634300081c0033",
          "opcodes": "PUSH1 0x80 PUSH1 0x40 MSTORE PUSH2 0x1F4 PUSH1 0x1 SSTORE PUSH9 0x2B5E3AF16B1880000 PUSH1 0x2 SSTORE PUSH2 0x12C PUSH1 0x3 SSTORE PUSH2 0x384 PUSH1 0x4 SSTORE PUSH2 0x258 PUSH1 0x5 SSTORE PUSH1 0x0 PUSH1 0x6 SSTORE CALLVALUE DUP1 ISZERO PUSH2 0x3A JUMPI PUSH1 0x0 DUP1 REVERT JUMPDEST POP PUSH1 0x40 MLOAD PUSH2 0x24DC CODESIZE SUB DUP1 PUSH2 0x24DC DUP4 CODECOPY DUP2 DUP2 ADD PUSH1 0x40 MSTORE DUP2 ADD SWAP1 PUSH2 0x5C SWAP2 SWAP1 PUSH2 0x28E JUMP JUMPDEST CALLER PUSH1 0x0 PUSH20 0xFFFFFFFFFFFFFFFFFFFFFFFFFFFFFFFFFFFFFFFF AND DUP2 PUSH20 0xFFFFFFFFFFFFFFFFFFFFFFFFFFFFFFFFFFFFFFFF AND SUB PUSH2 0xCF JUMPI PUSH1 0x0 PUSH1 0x40 MLOAD PUSH32 0x1E4FBDF700000000000000000000000000000000000000000000000000000000 DUP2 MSTORE PUSH1 0x4 ADD PUSH2 0xC6 SWAP2 SWAP1 PUSH2 0x2CA JUMP JUMPDEST PUSH1 0x40 MLOAD DUP1 SWAP2 SUB SWAP1 REVERT JUMPDEST PUSH2 0xDE DUP2 PUSH2 0x167 PUSH1 0x20 SHL PUSH1 0x20 SHR JUMP JUMPDEST POP DUP1 PUSH1 0x8 PUSH1 0x0 PUSH2 0x100 EXP DUP2 SLOAD DUP2 PUSH20 0xFFFFFFFFFFFFFFFFFFFFFFFFFFFFFFFFFFFFFFFF MUL NOT AND SWAP1 DUP4 PUSH20 0xFFFFFFFFFFFFFFFFFFFFFFFFFFFFFFFFFFFFFFFF AND MUL OR SWAP1 SSTORE POP CALLER PUSH1 0x7 PUSH1 0x0 PUSH2 0x100 EXP DUP2 SLOAD DUP2 PUSH20 0xFFFFFFFFFFFFFFFFFFFFFFFFFFFFFFFFFFFFFFFF MUL NOT AND SWAP1 DUP4 PUSH20 0xFFFFFFFFFFFFFFFFFFFFFFFFFFFFFFFFFFFFFFFF AND MUL OR SWAP1 SSTORE POP POP PUSH2 0x2E5 JUMP JUMPDEST PUSH1 0x0 DUP1 PUSH1 0x0 SWAP1 SLOAD SWAP1 PUSH2 0x100 EXP SWAP1 DIV PUSH20 0xFFFFFFFFFFFFFFFFFFFFFFFFFFFFFFFFFFFFFFFF AND SWAP1 POP DUP2 PUSH1 0x0 DUP1 PUSH2 0x100 EXP DUP2 SLOAD DUP2 PUSH20 0xFFFFFFFFFFFFFFFFFFFFFFFFFFFFFFFFFFFFFFFF MUL NOT AND SWAP1 DUP4 PUSH20 0xFFFFFFFFFFFFFFFFFFFFFFFFFFFFFFFFFFFFFFFF AND MUL OR SWAP1 SSTORE POP DUP2 PUSH20 0xFFFFFFFFFFFFFFFFFFFFFFFFFFFFFFFFFFFFFFFF AND DUP2 PUSH20 0xFFFFFFFFFFFFFFFFFFFFFFFFFFFFFFFFFFFFFFFF AND PUSH32 0x8BE0079C531659141344CD1FD0A4F28419497F9722A3DAAFE3B4186F6B6457E0 PUSH1 0x40 MLOAD PUSH1 0x40 MLOAD DUP1 SWAP2 SUB SWAP1 LOG3 POP POP JUMP JUMPDEST PUSH1 0x0 DUP1 REVERT JUMPDEST PUSH1 0x0 PUSH20 0xFFFFFFFFFFFFFFFFFFFFFFFFFFFFFFFFFFFFFFFF DUP3 AND SWAP1 POP SWAP2 SWAP1 POP JUMP JUMPDEST PUSH1 0x0 PUSH2 0x25B DUP3 PUSH2 0x230 JUMP JUMPDEST SWAP1 POP SWAP2 SWAP1 POP JUMP JUMPDEST PUSH2 0x26B DUP2 PUSH2 0x250 JUMP JUMPDEST DUP2 EQ PUSH2 0x276 JUMPI PUSH1 0x0 DUP1 REVERT JUMPDEST POP JUMP JUMPDEST PUSH1 0x0 DUP2 MLOAD SWAP1 POP PUSH2 0x288 DUP2 PUSH2 0x262 JUMP JUMPDEST SWAP3 SWAP2 POP POP JUMP JUMPDEST PUSH1 0x0 PUSH1 0x20 DUP3 DUP5 SUB SLT ISZERO PUSH2 0x2A4 JUMPI PUSH2 0x2A3 PUSH2 0x22B JUMP JUMPDEST JUMPDEST PUSH1 0x0 PUSH2 0x2B2 DUP5 DUP3 DUP6 ADD PUSH2 0x279 JUMP JUMPDEST SWAP2 POP POP SWAP3 SWAP2 POP POP JUMP JUMPDEST PUSH2 0x2C4 DUP2 PUSH2 0x250 JUMP JUMPDEST DUP3 MSTORE POP POP JUMP JUMPDEST PUSH1 0x0 PUSH1 0x20 DUP3 ADD SWAP1 POP PUSH2 0x2DF PUSH1 0x0 DUP4 ADD DUP5 PUSH2 0x2BB JUMP JUMPDEST SWAP3 SWAP2 POP POP JUMP JUMPDEST PUSH2 0x21E8 DUP1 PUSH2 0x2F4 PUSH1 0x0 CODECOPY PUSH1 0x0 RETURN INVALID PUSH1 0x80 PUSH1 0x40 MSTORE CALLVALUE DUP1 ISZERO PUSH2 0x10 JUMPI PUSH1 0x0 DUP1 REVERT JUMPDEST POP PUSH1 0x4 CALLDATASIZE LT PUSH2 0x10B JUMPI PUSH1 0x0 CALLDATALOAD PUSH1 0xE0 SHR DUP1 PUSH4 0x8DA5CB5B GT PUSH2 0xA2 JUMPI DUP1 PUSH4 0xB22A10D2 GT PUSH2 0x71 JUMPI DUP1 PUSH4 0xB22A10D2 EQ PUSH2 0x28B JUMPI DUP1 PUSH4 0xB514832D EQ PUSH2 0x2A9 JUMPI DUP1 PUSH4 0xE6F0681C EQ PUSH2 0x2C7 JUMPI DUP1 PUSH4 0xF2FDE38B EQ PUSH2 0x2E5 JUMPI DUP1 PUSH4 0xF8CE3164 EQ PUSH2 0x301 JUMPI PUSH2 0x10B JUMP JUMPDEST DUP1 PUSH4 0x8DA5CB5B EQ PUSH2 0x202 JUMPI DUP1 PUSH4 0x9C770B79 EQ PUSH2 0x220 JUMPI DUP1 PUSH4 0xA63ED2E4 EQ PUSH2 0x23C JUMPI DUP1 PUSH4 0xA79A2C78 EQ PUSH2 0x25A JUMPI PUSH2 0x10B JUMP JUMPDEST DUP1 PUSH4 0x512FED43 GT PUSH2 0xDE JUMPI DUP1 PUSH4 0x512FED43 EQ PUSH2 0x1A4 JUMPI DUP1 PUSH4 0x5F49BDE3 EQ PUSH2 0x1C0 JUMPI DUP1 PUSH4 0x694D3D38 EQ PUSH2 0x1DC JUMPI DUP1 PUSH4 0x715018A6 EQ PUSH2 0x1F8 JUMPI PUSH2 0x10B JUMP JUMPDEST DUP1 PUSH4 0x72EA61C EQ PUSH2 0x110 JUMPI DUP1 PUSH4 0x41275358 EQ PUSH2 0x12E JUMPI DUP1 PUSH4 0x4A91466E EQ PUSH2 0x14C JUMPI DUP1 PUSH4 0x4E5500BE EQ PUSH2 0x186 JUMPI JUMPDEST PUSH1 0x0 DUP1 REVERT JUMPDEST PUSH2 0x118 PUSH2 0x31F JUMP JUMPDEST PUSH1 0x40 MLOAD PUSH2 0x125 SWAP2 SWAP1 PUSH2 0x1ADC JUMP JUMPDEST PUSH1 0x40 MLOAD DUP1 SWAP2 SUB SWAP1 RETURN JUMPDEST PUSH2 0x136 PUSH2 0x325 JUMP JUMPDEST PUSH1 0x40 MLOAD PUSH2 0x143 SWAP2 SWAP1 PUSH2 0x1B38 JUMP JUMPDEST PUSH1 0x40 MLOAD DUP1 SWAP2 SUB SWAP1 RETURN JUMPDEST PUSH2 0x166 PUSH1 0x4 DUP1 CALLDATASIZE SUB DUP2 ADD SWAP1 PUSH2 0x161 SWAP2 SWAP1 PUSH2 0x1B8E JUMP JUMPDEST PUSH2 0x34B JUMP JUMPDEST PUSH1 0x40 MLOAD PUSH2 0x17D SWAP12 SWAP11 SWAP10 SWAP9 SWAP8 SWAP7 SWAP6 SWAP5 SWAP4 SWAP3 SWAP2 SWAP1 PUSH2 0x1C41 JUMP JUMPDEST PUSH1 0x40 MLOAD DUP1 SWAP2 SUB SWAP1 RETURN JUMPDEST PUSH2 0x18E PUSH2 0x3F2 JUMP JUMPDEST PUSH1 0x40 MLOAD PUSH2 0x19B SWAP2 SWAP1 PUSH2 0x1ADC JUMP JUMPDEST PUSH1 0x40 MLOAD DUP1 SWAP2 SUB SWAP1 RETURN JUMPDEST PUSH2 0x1BE PUSH1 0x4 DUP1 CALLDATASIZE SUB DUP2 ADD SWAP1 PUSH2 0x1B9 SWAP2 SWAP1 PUSH2 0x1D18 JUMP JUMPDEST PUSH2 0x3F8 JUMP JUMPDEST STOP JUMPDEST PUSH2 0x1DA PUSH1 0x4 DUP1 CALLDATASIZE SUB DUP2 ADD SWAP1 PUSH2 0x1D5 SWAP2 SWAP1 PUSH2 0x1B8E JUMP JUMPDEST PUSH2 0x75C JUMP JUMPDEST STOP JUMPDEST PUSH2 0x1F6 PUSH1 0x4 DUP1 CALLDATASIZE SUB DUP2 ADD SWAP1 PUSH2 0x1F1 SWAP2 SWAP1 PUSH2 0x1B8E JUMP JUMPDEST PUSH2 0x9EC JUMP JUMPDEST STOP JUMPDEST PUSH2 0x200 PUSH2 0xCC3 JUMP JUMPDEST STOP JUMPDEST PUSH2 0x20A PUSH2 0xCD7 JUMP JUMPDEST PUSH1 0x40 MLOAD PUSH2 0x217 SWAP2 SWAP1 PUSH2 0x1B38 JUMP JUMPDEST PUSH1 0x40 MLOAD DUP1 SWAP2 SUB SWAP1 RETURN JUMPDEST PUSH2 0x23A PUSH1 0x4 DUP1 CALLDATASIZE SUB DUP2 ADD SWAP1 PUSH2 0x235 SWAP2 SWAP1 PUSH2 0x1B8E JUMP JUMPDEST PUSH2 0xD00 JUMP JUMPDEST STOP JUMPDEST PUSH2 0x244 PUSH2 0x10D7 JUMP JUMPDEST PUSH1 0x40 MLOAD PUSH2 0x251 SWAP2 SWAP1 PUSH2 0x1DB7 JUMP JUMPDEST PUSH1 0x40 MLOAD DUP1 SWAP2 SUB SWAP1 RETURN JUMPDEST PUSH2 0x274 PUSH1 0x4 DUP1 CALLDATASIZE SUB DUP2 ADD SWAP1 PUSH2 0x26F SWAP2 SWAP1 PUSH2 0x1DFE JUMP JUMPDEST PUSH2 0x10FD JUMP JUMPDEST PUSH1 0x40 MLOAD PUSH2 0x282 SWAP3 SWAP2 SWAP1 PUSH2 0x1E59 JUMP JUMPDEST PUSH1 0x40 MLOAD DUP1 SWAP2 SUB SWAP1 RETURN JUMPDEST PUSH2 0x293 PUSH2 0x113B JUMP JUMPDEST PUSH1 0x40 MLOAD PUSH2 0x2A0 SWAP2 SWAP1 PUSH2 0x1ADC JUMP JUMPDEST PUSH1 0x40 MLOAD DUP1 SWAP2 SUB SWAP1 RETURN JUMPDEST PUSH2 0x2B1 PUSH2 0x1141 JUMP JUMPDEST PUSH1 0x40 MLOAD PUSH2 0x2BE SWAP2 SWAP1 PUSH2 0x1ADC JUMP JUMPDEST PUSH1 0x40 MLOAD DUP1 SWAP2 SUB SWAP1 RETURN JUMPDEST PUSH2 0x2CF PUSH2 0x1147 JUMP JUMPDEST PUSH1 0x40 MLOAD PUSH2 0x2DC SWAP2 SWAP1 PUSH2 0x1ADC JUMP JUMPDEST PUSH1 0x40 MLOAD DUP1 SWAP2 SUB SWAP1 RETURN JUMPDEST PUSH2 0x2FF PUSH1 0x4 DUP1 CALLDATASIZE SUB DUP2 ADD SWAP1 PUSH2 0x2FA SWAP2 SWAP1 PUSH2 0x1E82 JUMP JUMPDEST PUSH2 0x114D JUMP JUMPDEST STOP JUMPDEST PUSH2 0x309 PUSH2 0x11D3 JUMP JUMPDEST PUSH1 0x40 MLOAD PUSH2 0x316 SWAP2 SWAP1 PUSH2 0x1ADC JUMP JUMPDEST PUSH1 0x40 MLOAD DUP1 SWAP2 SUB SWAP1 RETURN JUMPDEST PUSH1 0x2 SLOAD DUP2 JUMP JUMPDEST PUSH1 0x7 PUSH1 0x0 SWAP1 SLOAD SWAP1 PUSH2 0x100 EXP SWAP1 DIV PUSH20 0xFFFFFFFFFFFFFFFFFFFFFFFFFFFFFFFFFFFFFFFF AND DUP2 JUMP JUMPDEST PUSH1 0x9 PUSH1 0x20 MSTORE DUP1 PUSH1 0x0 MSTORE PUSH1 0x40 PUSH1 0x0 KECCAK256 PUSH1 0x0 SWAP2 POP SWAP1 POP DUP1 PUSH1 0x0 ADD SLOAD SWAP1 DUP1 PUSH1 0x1 ADD SLOAD SWAP1 DUP1 PUSH1 0x2 ADD SLOAD SWAP1 DUP1 PUSH1 0x3 ADD SLOAD SWAP1 DUP1 PUSH1 0x4 ADD PUSH1 0x0 SWAP1 SLOAD SWAP1 PUSH2 0x100 EXP SWAP1 DIV PUSH20 0xFFFFFFFFFFFFFFFFFFFFFFFFFFFFFFFFFFFFFFFF AND SWAP1 DUP1 PUSH1 0x5 ADD PUSH1 0x0 SWAP1 SLOAD SWAP1 PUSH2 0x100 EXP SWAP1 DIV PUSH20 0xFFFFFFFFFFFFFFFFFFFFFFFFFFFFFFFFFFFFFFFF AND SWAP1 DUP1 PUSH1 0x6 ADD SLOAD SWAP1 DUP1 PUSH1 0x7 ADD SLOAD SWAP1 DUP1 PUSH1 0x8 ADD SLOAD SWAP1 DUP1 PUSH1 0x9 ADD PUSH1 0x0 SWAP1 SLOAD SWAP1 PUSH2 0x100 EXP SWAP1 DIV PUSH1 0xFF AND SWAP1 DUP1 PUSH1 0xA ADD SLOAD SWAP1 POP DUP12 JUMP JUMPDEST PUSH1 0x5 SLOAD DUP2 JUMP JUMPDEST DUP2 PUSH1 0x0 PUSH1 0x9 PUSH1 0x0 DUP4 DUP2 MSTORE PUSH1 0x20 ADD SWAP1 DUP2 MSTORE PUSH1 0x20 ADD PUSH1 0x0 KECCAK256 PUSH1 0x0 ADD SLOAD SUB PUSH2 0x449 JUMPI PUSH1 0x40 MLOAD PUSH32 0x35A71CA300000000000000000000000000000000000000000000000000000000 DUP2 MSTORE PUSH1 0x4 ADD PUSH1 0x40 MLOAD DUP1 SWAP2 SUB SWAP1 REVERT JUMPDEST DUP2 PUSH1 0x0 DUP2 SUB PUSH2 0x484 JUMPI PUSH1 0x40 MLOAD PUSH32 0x99D1D12F00000000000000000000000000000000000000000000000000000000 DUP2 MSTORE PUSH1 0x4 ADD PUSH1 0x40 MLOAD DUP1 SWAP2 SUB SWAP1 REVERT JUMPDEST DUP4 PUSH1 0x3 DUP1 PUSH1 0x4 DUP2 GT ISZERO PUSH2 0x49A JUMPI PUSH2 0x499 PUSH2 0x1BBB JUMP JUMPDEST JUMPDEST PUSH2 0x4A3 DUP4 PUSH2 0x11D9 JUMP JUMPDEST PUSH1 0x4 DUP2 GT ISZERO PUSH2 0x4B5 JUMPI PUSH2 0x4B4 PUSH2 0x1BBB JUMP JUMPDEST JUMPDEST EQ PUSH2 0x4FF JUMPI PUSH2 0x4C3 DUP3 PUSH2 0x11D9 JUMP JUMPDEST PUSH1 0x40 MLOAD PUSH32 0xD07E897600000000000000000000000000000000000000000000000000000000 DUP2 MSTORE PUSH1 0x4 ADD PUSH2 0x4F6 SWAP2 SWAP1 PUSH2 0x1EAF JUMP JUMPDEST PUSH1 0x40 MLOAD DUP1 SWAP2 SUB SWAP1 REVERT JUMPDEST DUP6 CALLER PUSH1 0xA PUSH1 0x0 DUP4 DUP2 MSTORE PUSH1 0x20 ADD SWAP1 DUP2 MSTORE PUSH1 0x20 ADD PUSH1 0x0 KECCAK256 PUSH1 0x0 DUP3 PUSH20 0xFFFFFFFFFFFFFFFFFFFFFFFFFFFFFFFFFFFFFFFF AND PUSH20 0xFFFFFFFFFFFFFFFFFFFFFFFFFFFFFFFFFFFFFFFF AND DUP2 MSTORE PUSH1 0x20 ADD SWAP1 DUP2 MSTORE PUSH1 0x20 ADD PUSH1 0x0 KECCAK256 PUSH1 0x0 ADD PUSH1 0x0 SWAP1 SLOAD SWAP1 PUSH2 0x100 EXP SWAP1 DIV PUSH1 0xFF AND PUSH2 0x598 JUMPI PUSH1 0x40 MLOAD PUSH32 0xE438F8CE00000000000000000000000000000000000000000000000000000000 DUP2 MSTORE PUSH1 0x4 ADD PUSH1 0x40 MLOAD DUP1 SWAP2 SUB SWAP1 REVERT JUMPDEST PUSH1 0x0 PUSH1 0xA PUSH1 0x0 DUP11 DUP2 MSTORE PUSH1 0x20 ADD SWAP1 DUP2 MSTORE PUSH1 0x20 ADD PUSH1 0x0 KECCAK256 PUSH1 0x0 CALLER PUSH20 0xFFFFFFFFFFFFFFFFFFFFFFFFFFFFFFFFFFFFFFFF AND PUSH20 0xFFFFFFFFFFFFFFFFFFFFFFFFFFFFFFFFFFFFFFFF AND DUP2 MSTORE PUSH1 0x20 ADD SWAP1 DUP2 MSTORE PUSH1 0x20 ADD PUSH1 0x0 KECCAK256 PUSH1 0x1 ADD SLOAD GT ISZERO PUSH2 0x626 JUMPI PUSH1 0x40 MLOAD PUSH32 0xD75B177C00000000000000000000000000000000000000000000000000000000 DUP2 MSTORE PUSH1 0x4 ADD PUSH1 0x40 MLOAD DUP1 SWAP2 SUB SWAP1 REVERT JUMPDEST DUP7 PUSH1 0xA PUSH1 0x0 DUP11 DUP2 MSTORE PUSH1 0x20 ADD SWAP1 DUP2 MSTORE PUSH1 0x20 ADD PUSH1 0x0 KECCAK256 PUSH1 0x0 CALLER PUSH20 0xFFFFFFFFFFFFFFFFFFFFFFFFFFFFFFFFFFFFFFFF AND PUSH20 0xFFFFFFFFFFFFFFFFFFFFFFFFFFFFFFFFFFFFFFFF AND DUP2 MSTORE PUSH1 0x20 ADD SWAP1 DUP2 MSTORE PUSH1 0x20 ADD PUSH1 0x0 KECCAK256 PUSH1 0x1 ADD DUP2 SWAP1 SSTORE POP PUSH1 0x9 PUSH1 0x0 DUP10 DUP2 MSTORE PUSH1 0x20 ADD SWAP1 DUP2 MSTORE PUSH1 0x20 ADD PUSH1 0x0 KECCAK256 PUSH1 0x1 ADD SLOAD DUP8 GT ISZERO PUSH2 0x70D JUMPI DUP7 PUSH1 0x9 PUSH1 0x0 DUP11 DUP2 MSTORE PUSH1 0x20 ADD SWAP1 DUP2 MSTORE PUSH1 0x20 ADD PUSH1 0x0 KECCAK256 PUSH1 0x1 ADD DUP2 SWAP1 SSTORE POP CALLER PUSH1 0x9 PUSH1 0x0 DUP11 DUP2 MSTORE PUSH1 0x20 ADD SWAP1 DUP2 MSTORE PUSH1 0x20 ADD PUSH1 0x0 KECCAK256 PUSH1 0x4 ADD PUSH1 0x0 PUSH2 0x100 EXP DUP2 SLOAD DUP2 PUSH20 0xFFFFFFFFFFFFFFFFFFFFFFFFFFFFFFFFFFFFFFFF MUL NOT AND SWAP1 DUP4 PUSH20 0xFFFFFFFFFFFFFFFFFFFFFFFFFFFFFFFFFFFFFFFF AND MUL OR SWAP1 SSTORE POP JUMPDEST PUSH32 0x360D43592906A5460DF7B695E84D2D0C4D4B29C343CDB9FF69FD7FA1ECB29A99 DUP9 PUSH2 0x738 DUP11 PUSH2 0x11D9 JUMP JUMPDEST CALLER DUP11 PUSH1 0x40 MLOAD PUSH2 0x74A SWAP5 SWAP4 SWAP3 SWAP2 SWAP1 PUSH2 0x1ECA JUMP JUMPDEST PUSH1 0x40 MLOAD DUP1 SWAP2 SUB SWAP1 LOG1 POP POP POP POP POP POP POP POP JUMP JUMPDEST DUP1 PUSH1 0x4 DUP1 PUSH1 0x4 DUP2 GT ISZERO PUSH2 0x772 JUMPI PUSH2 0x771 PUSH2 0x1BBB JUMP JUMPDEST JUMPDEST PUSH2 0x77B DUP4 PUSH2 0x11D9 JUMP JUMPDEST PUSH1 0x4 DUP2 GT ISZERO PUSH2 0x78D JUMPI PUSH2 0x78C PUSH2 0x1BBB JUMP JUMPDEST JUMPDEST EQ PUSH2 0x7D7 JUMPI PUSH2 0x79B DUP3 PUSH2 0x11D9 JUMP JUMPDEST PUSH1 0x40 MLOAD PUSH32 0xD07E897600000000000000000000000000000000000000000000000000000000 DUP2 MSTORE PUSH1 0x4 ADD PUSH2 0x7CE SWAP2 SWAP1 PUSH2 0x1EAF JUMP JUMPDEST PUSH1 0x40 MLOAD DUP1 SWAP2 SUB SWAP1 REVERT JUMPDEST PUSH1 0x2 PUSH1 0x9 PUSH1 0x0 DUP6 DUP2 MSTORE PUSH1 0x20 ADD SWAP1 DUP2 MSTORE PUSH1 0x20 ADD PUSH1 0x0 KECCAK256 PUSH1 0x9 ADD PUSH1 0x0 PUSH2 0x100 EXP DUP2 SLOAD DUP2 PUSH1 0xFF MUL NOT AND SWAP1 DUP4 PUSH1 0x4 DUP2 GT ISZERO PUSH2 0x811 JUMPI PUSH2 0x810 PUSH2 0x1BBB JUMP JUMPDEST JUMPDEST MUL OR SWAP1 SSTORE POP PUSH1 0x0 PUSH20 0xFFFFFFFFFFFFFFFFFFFFFFFFFFFFFFFFFFFFFFFF AND PUSH1 0x9 PUSH1 0x0 DUP6 DUP2 MSTORE PUSH1 0x20 ADD SWAP1 DUP2 MSTORE PUSH1 0x20 ADD PUSH1 0x0 KECCAK256 PUSH1 0x4 ADD PUSH1 0x0 SWAP1 SLOAD SWAP1 PUSH2 0x100 EXP SWAP1 DIV PUSH20 0xFFFFFFFFFFFFFFFFFFFFFFFFFFFFFFFFFFFFFFFF AND PUSH20 0xFFFFFFFFFFFFFFFFFFFFFFFFFFFFFFFFFFFFFFFF AND SUB PUSH2 0x8B2 JUMPI PUSH1 0x40 MLOAD PUSH32 0x93A5F3C700000000000000000000000000000000000000000000000000000000 DUP2 MSTORE PUSH1 0x4 ADD PUSH1 0x40 MLOAD DUP1 SWAP2 SUB SWAP1 REVERT JUMPDEST PUSH1 0x0 PUSH1 0x9 PUSH1 0x0 DUP6 DUP2 MSTORE PUSH1 0x20 ADD SWAP1 DUP2 MSTORE PUSH1 0x20 ADD PUSH1 0x0 KECCAK256 PUSH1 0x2 ADD SLOAD SUB PUSH2 0x902 JUMPI PUSH1 0x40 MLOAD PUSH32 0x6C976DD700000000000000000000000000000000000000000000000000000000 DUP2 MSTORE PUSH1 0x4 ADD PUSH1 0x40 MLOAD DUP1 SWAP2 SUB SWAP1 REVERT JUMPDEST PUSH1 0x0 DUP1 PUSH2 0x924 PUSH1 0x9 PUSH1 0x0 DUP8 DUP2 MSTORE PUSH1 0x20 ADD SWAP1 DUP2 MSTORE PUSH1 0x20 ADD PUSH1 0x0 KECCAK256 PUSH1 0x2 ADD SLOAD PUSH2 0x12CB JUMP JUMPDEST SWAP2 POP SWAP2 POP PUSH2 0x968 DUP2 PUSH1 0x9 PUSH1 0x0 DUP9 DUP2 MSTORE PUSH1 0x20 ADD SWAP1 DUP2 MSTORE PUSH1 0x20 ADD PUSH1 0x0 KECCAK256 PUSH1 0x4 ADD PUSH1 0x0 SWAP1 SLOAD SWAP1 PUSH2 0x100 EXP SWAP1 DIV PUSH20 0xFFFFFFFFFFFFFFFFFFFFFFFFFFFFFFFFFFFFFFFF AND PUSH2 0x1308 JUMP JUMPDEST PUSH32 0x78F25BB1DD175524204D4CF9D8D0490199987DB861FC9F2E4A629D9D2E43F2E2 DUP6 PUSH2 0x993 DUP8 PUSH2 0x11D9 JUMP JUMPDEST PUSH1 0x9 PUSH1 0x0 DUP10 DUP2 MSTORE PUSH1 0x20 ADD SWAP1 DUP2 MSTORE PUSH1 0x20 ADD PUSH1 0x0 KECCAK256 PUSH1 0x4 ADD PUSH1 0x0 SWAP1 SLOAD SWAP1 PUSH2 0x100 EXP SWAP1 DIV PUSH20 0xFFFFFFFFFFFFFFFFFFFFFFFFFFFFFFFFFFFFFFFF AND DUP5 DUP7 PUSH1 0x40 MLOAD PUSH2 0x9DD SWAP6 SWAP5 SWAP4 SWAP3 SWAP2 SWAP1 PUSH2 0x1F0F JUMP JUMPDEST PUSH1 0x40 MLOAD DUP1 SWAP2 SUB SWAP1 LOG1 POP POP POP POP POP JUMP JUMPDEST DUP1 PUSH1 0x0 PUSH1 0x9 PUSH1 0x0 DUP4 DUP2 MSTORE PUSH1 0x20 ADD SWAP1 DUP2 MSTORE PUSH1 0x20 ADD PUSH1 0x0 KECCAK256 PUSH1 0x0 ADD SLOAD SUB PUSH2 0xA3D JUMPI PUSH1 0x40 MLOAD PUSH32 0x35A71CA300000000000000000000000000000000000000000000000000000000 DUP2 MSTORE PUSH1 0x4 ADD PUSH1 0x40 MLOAD DUP1 SWAP2 SUB SWAP1 REVERT JUMPDEST DUP2 PUSH1 0x0 DUP1 PUSH1 0x4 DUP2 GT ISZERO PUSH2 0xA53 JUMPI PUSH2 0xA52 PUSH2 0x1BBB JUMP JUMPDEST JUMPDEST PUSH2 0xA5C DUP4 PUSH2 0x11D9 JUMP JUMPDEST PUSH1 0x4 DUP2 GT ISZERO PUSH2 0xA6E JUMPI PUSH2 0xA6D PUSH2 0x1BBB JUMP JUMPDEST JUMPDEST EQ PUSH2 0xAB8 JUMPI PUSH2 0xA7C DUP3 PUSH2 0x11D9 JUMP JUMPDEST PUSH1 0x40 MLOAD PUSH32 0xD07E897600000000000000000000000000000000000000000000000000000000 DUP2 MSTORE PUSH1 0x4 ADD PUSH2 0xAAF SWAP2 SWAP1 PUSH2 0x1EAF JUMP JUMPDEST PUSH1 0x40 MLOAD DUP1 SWAP2 SUB SWAP1 REVERT JUMPDEST DUP4 CALLER PUSH1 0xA PUSH1 0x0 DUP4 DUP2 MSTORE PUSH1 0x20 ADD SWAP1 DUP2 MSTORE PUSH1 0x20 ADD PUSH1 0x0 KECCAK256 PUSH1 0x0 DUP3 PUSH20 0xFFFFFFFFFFFFFFFFFFFFFFFFFFFFFFFFFFFFFFFF AND PUSH20 0xFFFFFFFFFFFFFFFFFFFFFFFFFFFFFFFFFFFFFFFF AND DUP2 MSTORE PUSH1 0x20 ADD SWAP1 DUP2 MSTORE PUSH1 0x20 ADD PUSH1 0x0 KECCAK256 PUSH1 0x0 ADD PUSH1 0x0 SWAP1 SLOAD SWAP1 PUSH2 0x100 EXP SWAP1 DIV PUSH1 0xFF AND ISZERO PUSH2 0xB52 JUMPI PUSH1 0x40 MLOAD PUSH32 0x79E72C6D00000000000000000000000000000000000000000000000000000000 DUP2 MSTORE PUSH1 0x4 ADD PUSH1 0x40 MLOAD DUP1 SWAP2 SUB SWAP1 REVERT JUMPDEST PUSH1 0x1 PUSH1 0x9 PUSH1 0x0 DUP9 DUP2 MSTORE PUSH1 0x20 ADD SWAP1 DUP2 MSTORE PUSH1 0x20 ADD PUSH1 0x0 KECCAK256 PUSH1 0x0 ADD PUSH1 0x0 DUP3 DUP3 SLOAD PUSH2 0xB79 SWAP2 SWAP1 PUSH2 0x1F91 JUMP JUMPDEST SWAP3 POP POP DUP2 SWAP1 SSTORE POP PUSH1 0x9 PUSH1 0x0 DUP8 DUP2 MSTORE PUSH1 0x20 ADD SWAP1 DUP2 MSTORE PUSH1 0x20 ADD PUSH1 0x0 KECCAK256 PUSH1 0x3 ADD SLOAD PUSH1 0x9 PUSH1 0x0 DUP9 DUP2 MSTORE PUSH1 0x20 ADD SWAP1 DUP2 MSTORE PUSH1 0x20 ADD PUSH1 0x0 KECCAK256 PUSH1 0x2 ADD PUSH1 0x0 DUP3 DUP3 SLOAD PUSH2 0xBBC SWAP2 SWAP1 PUSH2 0x1F91 JUMP JUMPDEST SWAP3 POP POP DUP2 SWAP1 SSTORE POP PUSH1 0x40 MLOAD DUP1 PUSH1 0x40 ADD PUSH1 0x40 MSTORE DUP1 PUSH1 0x1 ISZERO ISZERO DUP2 MSTORE PUSH1 0x20 ADD PUSH1 0x0 DUP2 MSTORE POP PUSH1 0xA PUSH1 0x0 DUP9 DUP2 MSTORE PUSH1 0x20 ADD SWAP1 DUP2 MSTORE PUSH1 0x20 ADD PUSH1 0x0 KECCAK256 PUSH1 0x0 CALLER PUSH20 0xFFFFFFFFFFFFFFFFFFFFFFFFFFFFFFFFFFFFFFFF AND PUSH20 0xFFFFFFFFFFFFFFFFFFFFFFFFFFFFFFFFFFFFFFFF AND DUP2 MSTORE PUSH1 0x20 ADD SWAP1 DUP2 MSTORE PUSH1 0x20 ADD PUSH1 0x0 KECCAK256 PUSH1 0x0 DUP3 ADD MLOAD DUP2 PUSH1 0x0 ADD PUSH1 0x0 PUSH2 0x100 EXP DUP2 SLOAD DUP2 PUSH1 0xFF MUL NOT AND SWAP1 DUP4 ISZERO ISZERO MUL OR SWAP1 SSTORE POP PUSH1 0x20 DUP3 ADD MLOAD DUP2 PUSH1 0x1 ADD SSTORE SWAP1 POP POP PUSH2 0xC78 PUSH1 0x9 PUSH1 0x0 DUP9 DUP2 MSTORE PUSH1 0x20 ADD SWAP1 DUP2 MSTORE PUSH1 0x20 ADD PUSH1 0x0 KECCAK256 PUSH1 0x3 ADD SLOAD PUSH2 0x14BF JUMP JUMPDEST PUSH32 0xBE1008CDC58E311BE2A6A335B4C907EE1E8D2BB0E88F857CA30C0805C0B73EF9 DUP7 PUSH2 0xCA3 DUP9 PUSH2 0x11D9 JUMP JUMPDEST CALLER PUSH1 0x40 MLOAD PUSH2 0xCB3 SWAP4 SWAP3 SWAP2 SWAP1 PUSH2 0x1FC5 JUMP JUMPDEST PUSH1 0x40 MLOAD DUP1 SWAP2 SUB SWAP1 LOG1 POP POP POP POP POP POP JUMP JUMPDEST PUSH2 0xCCB PUSH2 0x1676 JUMP JUMPDEST PUSH2 0xCD5 PUSH1 0x0 PUSH2 0x16FD JUMP JUMPDEST JUMP JUMPDEST PUSH1 0x0 DUP1 PUSH1 0x0 SWAP1 SLOAD SWAP1 PUSH2 0x100 EXP SWAP1 DIV PUSH20 0xFFFFFFFFFFFFFFFFFFFFFFFFFFFFFFFFFFFFFFFF AND SWAP1 POP SWAP1 JUMP JUMPDEST DUP1 PUSH1 0x0 PUSH1 0x9 PUSH1 0x0 DUP4 DUP2 MSTORE PUSH1 0x20 ADD SWAP1 DUP2 MSTORE PUSH1 0x20 ADD PUSH1 0x0 KECCAK256 PUSH1 0x0 ADD SLOAD GT ISZERO PUSH2 0xD52 JUMPI PUSH1 0x40 MLOAD PUSH32 0x87AA7D5100000000000000000000000000000000000000000000000000000000 DUP2 MSTORE PUSH1 0x4 ADD PUSH1 0x40 MLOAD DUP1 SWAP2 SUB SWAP1 REVERT JUMPDEST PUSH1 0x40 MLOAD DUP1 PUSH2 0x160 ADD PUSH1 0x40 MSTORE DUP1 PUSH1 0x1 DUP2 MSTORE PUSH1 0x20 ADD PUSH1 0x0 DUP2 MSTORE PUSH1 0x20 ADD PUSH1 0x2 SLOAD DUP2 MSTORE PUSH1 0x20 ADD PUSH1 0x2 SLOAD DUP2 MSTORE PUSH1 0x20 ADD PUSH1 0x0 PUSH20 0xFFFFFFFFFFFFFFFFFFFFFFFFFFFFFFFFFFFFFFFF AND DUP2 MSTORE PUSH1 0x20 ADD CALLER PUSH20 0xFFFFFFFFFFFFFFFFFFFFFFFFFFFFFFFFFFFFFFFF AND DUP2 MSTORE PUSH1 0x20 ADD PUSH1 0x3 SLOAD TIMESTAMP PUSH2 0xDC3 SWAP2 SWAP1 PUSH2 0x1F91 JUMP JUMPDEST DUP2 MSTORE PUSH1 0x20 ADD PUSH1 0x4 SLOAD PUSH1 0x3 SLOAD TIMESTAMP PUSH2 0xDD9 SWAP2 SWAP1 PUSH2 0x1F91 JUMP JUMPDEST PUSH2 0xDE3 SWAP2 SWAP1 PUSH2 0x1F91 JUMP JUMPDEST DUP2 MSTORE PUSH1 0x20 ADD PUSH1 0x5 SLOAD PUSH1 0x4 SLOAD PUSH1 0x3 SLOAD TIMESTAMP PUSH2 0xDFC SWAP2 SWAP1 PUSH2 0x1F91 JUMP JUMPDEST PUSH2 0xE06 SWAP2 SWAP1 PUSH2 0x1F91 JUMP JUMPDEST PUSH2 0xE10 SWAP2 SWAP1 PUSH2 0x1F91 JUMP JUMPDEST DUP2 MSTORE PUSH1 0x20 ADD PUSH1 0x0 PUSH1 0x4 DUP2 GT ISZERO PUSH2 0xE29 JUMPI PUSH2 0xE28 PUSH2 0x1BBB JUMP JUMPDEST JUMPDEST DUP2 MSTORE PUSH1 0x20 ADD DUP4 DUP2 MSTORE POP PUSH1 0x9 PUSH1 0x0 DUP5 DUP2 MSTORE PUSH1 0x20 ADD SWAP1 DUP2 MSTORE PUSH1 0x20 ADD PUSH1 0x0 KECCAK256 PUSH1 0x0 DUP3 ADD MLOAD DUP2 PUSH1 0x0 ADD SSTORE PUSH1 0x20 DUP3 ADD MLOAD DUP2 PUSH1 0x1 ADD SSTORE PUSH1 0x40 DUP3 ADD MLOAD DUP2 PUSH1 0x2 ADD SSTORE PUSH1 0x60 DUP3 ADD MLOAD DUP2 PUSH1 0x3 ADD SSTORE PUSH1 0x80 DUP3 ADD MLOAD DUP2 PUSH1 0x4 ADD PUSH1 0x0 PUSH2 0x100 EXP DUP2 SLOAD DUP2 PUSH20 0xFFFFFFFFFFFFFFFFFFFFFFFFFFFFFFFFFFFFFFFF MUL NOT AND SWAP1 DUP4 PUSH20 0xFFFFFFFFFFFFFFFFFFFFFFFFFFFFFFFFFFFFFFFF AND MUL OR SWAP1 SSTORE POP PUSH1 0xA0 DUP3 ADD MLOAD DUP2 PUSH1 0x5 ADD PUSH1 0x0 PUSH2 0x100 EXP DUP2 SLOAD DUP2 PUSH20 0xFFFFFFFFFFFFFFFFFFFFFFFFFFFFFFFFFFFFFFFF MUL NOT AND SWAP1 DUP4 PUSH20 0xFFFFFFFFFFFFFFFFFFFFFFFFFFFFFFFFFFFFFFFF AND MUL OR SWAP1 SSTORE POP PUSH1 0xC0 DUP3 ADD MLOAD DUP2 PUSH1 0x6 ADD SSTORE PUSH1 0xE0 DUP3 ADD MLOAD DUP2 PUSH1 0x7 ADD SSTORE PUSH2 0x100 DUP3 ADD MLOAD DUP2 PUSH1 0x8 ADD SSTORE PUSH2 0x120 DUP3 ADD MLOAD DUP2 PUSH1 0x9 ADD PUSH1 0x0 PUSH2 0x100 EXP DUP2 SLOAD DUP2 PUSH1 0xFF MUL NOT AND SWAP1 DUP4 PUSH1 0x4 DUP2 GT ISZERO PUSH2 0xF46 JUMPI PUSH2 0xF45 PUSH2 0x1BBB JUMP JUMPDEST JUMPDEST MUL OR SWAP1 SSTORE POP PUSH2 0x140 DUP3 ADD MLOAD DUP2 PUSH1 0xA ADD SSTORE SWAP1 POP POP PUSH1 0x40 MLOAD DUP1 PUSH1 0x40 ADD PUSH1 0x40 MSTORE DUP1 PUSH1 0x1 ISZERO ISZERO DUP2 MSTORE PUSH1 0x20 ADD PUSH1 0x0 DUP2 MSTORE POP PUSH1 0xA PUSH1 0x0 DUP5 DUP2 MSTORE PUSH1 0x20 ADD SWAP1 DUP2 MSTORE PUSH1 0x20 ADD PUSH1 0x0 KECCAK256 PUSH1 0x0 CALLER PUSH20 0xFFFFFFFFFFFFFFFFFFFFFFFFFFFFFFFFFFFFFFFF AND PUSH20 0xFFFFFFFFFFFFFFFFFFFFFFFFFFFFFFFFFFFFFFFF AND DUP2 MSTORE PUSH1 0x20 ADD SWAP1 DUP2 MSTORE PUSH1 0x20 ADD PUSH1 0x0 KECCAK256 PUSH1 0x0 DUP3 ADD MLOAD DUP2 PUSH1 0x0 ADD PUSH1 0x0 PUSH2 0x100 EXP DUP2 SLOAD DUP2 PUSH1 0xFF MUL NOT AND SWAP1 DUP4 ISZERO ISZERO MUL OR SWAP1 SSTORE POP PUSH1 0x20 DUP3 ADD MLOAD DUP2 PUSH1 0x1 ADD SSTORE SWAP1 POP POP PUSH2 0xFFA PUSH1 0x2 SLOAD PUSH2 0x14BF JUMP JUMPDEST PUSH32 0xFAC69218D604AA73B5BED690E8BB8BEA0E6F1672EB10AC50EA0DFEBF94FD3240 DUP3 PUSH2 0x1025 DUP5 PUSH2 0x11D9 JUMP JUMPDEST PUSH1 0x9 PUSH1 0x0 DUP7 DUP2 MSTORE PUSH1 0x20 ADD SWAP1 DUP2 MSTORE PUSH1 0x20 ADD PUSH1 0x0 KECCAK256 PUSH1 0x5 ADD PUSH1 0x0 SWAP1 SLOAD SWAP1 PUSH2 0x100 EXP SWAP1 DIV PUSH20 0xFFFFFFFFFFFFFFFFFFFFFFFFFFFFFFFFFFFFFFFF AND PUSH1 0x9 PUSH1 0x0 DUP8 DUP2 MSTORE PUSH1 0x20 ADD SWAP1 DUP2 MSTORE PUSH1 0x20 ADD PUSH1 0x0 KECCAK256 PUSH1 0x3 ADD SLOAD PUSH1 0x9 PUSH1 0x0 DUP9 DUP2 MSTORE PUSH1 0x20 ADD SWAP1 DUP2 MSTORE PUSH1 0x20 ADD PUSH1 0x0 KECCAK256 PUSH1 0x6 ADD SLOAD PUSH1 0x9 PUSH1 0x0 DUP10 DUP2 MSTORE PUSH1 0x20 ADD SWAP1 DUP2 MSTORE PUSH1 0x20 ADD PUSH1 0x0 KECCAK256 PUSH1 0x7 ADD SLOAD PUSH1 0x9 PUSH1 0x0 DUP11 DUP2 MSTORE PUSH1 0x20 ADD SWAP1 DUP2 MSTORE PUSH1 0x20 ADD PUSH1 0x0 KECCAK256 PUSH1 0x8 ADD SLOAD PUSH1 0x40 MLOAD PUSH2 0x10CB SWAP8 SWAP7 SWAP6 SWAP5 SWAP4 SWAP3 SWAP2 SWAP1 PUSH2 0x1FFC JUMP JUMPDEST PUSH1 0x40 MLOAD DUP1 SWAP2 SUB SWAP1 LOG1 POP POP JUMP JUMPDEST PUSH1 0x8 PUSH1 0x0 SWAP1 SLOAD SWAP1 PUSH2 0x100 EXP SWAP1 DIV PUSH20 0xFFFFFFFFFFFFFFFFFFFFFFFFFFFFFFFFFFFFFFFF AND DUP2 JUMP JUMPDEST PUSH1 0xA PUSH1 0x20 MSTORE DUP2 PUSH1 0x0 MSTORE PUSH1 0x40 PUSH1 0x0 KECCAK256 PUSH1 0x20 MSTORE DUP1 PUSH1 0x0 MSTORE PUSH1 0x40 PUSH1 0x0 KECCAK256 PUSH1 0x0 SWAP2 POP SWAP2 POP POP DUP1 PUSH1 0x0 ADD PUSH1 0x0 SWAP1 SLOAD SWAP1 PUSH2 0x100 EXP SWAP1 DIV PUSH1 0xFF AND SWAP1 DUP1 PUSH1 0x1 ADD SLOAD SWAP1 POP DUP3 JUMP JUMPDEST PUSH1 0x4 SLOAD DUP2 JUMP JUMPDEST PUSH1 0x3 SLOAD DUP2 JUMP JUMPDEST PUSH1 0x1 SLOAD DUP2 JUMP JUMPDEST PUSH2 0x1155 PUSH2 0x1676 JUMP JUMPDEST PUSH1 0x0 PUSH20 0xFFFFFFFFFFFFFFFFFFFFFFFFFFFFFFFFFFFFFFFF AND DUP2 PUSH20 0xFFFFFFFFFFFFFFFFFFFFFFFFFFFFFFFFFFFFFFFF AND SUB PUSH2 0x11C7 JUMPI PUSH1 0x0 PUSH1 0x40 MLOAD PUSH32 0x1E4FBDF700000000000000000000000000000000000000000000000000000000 DUP2 MSTORE PUSH1 0x4 ADD PUSH2 0x11BE SWAP2 SWAP1 PUSH2 0x1B38 JUMP JUMPDEST PUSH1 0x40 MLOAD DUP1 SWAP2 SUB SWAP1 REVERT JUMPDEST PUSH2 0x11D0 DUP2 PUSH2 0x16FD JUMP JUMPDEST POP JUMP JUMPDEST PUSH1 0x6 SLOAD DUP2 JUMP JUMPDEST PUSH1 0x0 DUP1 PUSH1 0x4 DUP2 GT ISZERO PUSH2 0x11EE JUMPI PUSH2 0x11ED PUSH2 0x1BBB JUMP JUMPDEST JUMPDEST PUSH1 0x9 PUSH1 0x0 DUP5 DUP2 MSTORE PUSH1 0x20 ADD SWAP1 DUP2 MSTORE PUSH1 0x20 ADD PUSH1 0x0 KECCAK256 PUSH1 0x9 ADD PUSH1 0x0 SWAP1 SLOAD SWAP1 PUSH2 0x100 EXP SWAP1 DIV PUSH1 0xFF AND PUSH1 0x4 DUP2 GT ISZERO PUSH2 0x1224 JUMPI PUSH2 0x1223 PUSH2 0x1BBB JUMP JUMPDEST JUMPDEST SUB PUSH2 0x129F JUMPI PUSH1 0x9 PUSH1 0x0 DUP4 DUP2 MSTORE PUSH1 0x20 ADD SWAP1 DUP2 MSTORE PUSH1 0x20 ADD PUSH1 0x0 KECCAK256 PUSH1 0x6 ADD SLOAD TIMESTAMP GT ISZERO PUSH2 0x129E JUMPI PUSH1 0x9 PUSH1 0x0 DUP4 DUP2 MSTORE PUSH1 0x20 ADD SWAP1 DUP2 MSTORE PUSH1 0x20 ADD PUSH1 0x0 KECCAK256 PUSH1 0x7 ADD SLOAD TIMESTAMP LT ISZERO PUSH2 0x126E JUMPI PUSH1 0x1 SWAP1 POP PUSH2 0x12C6 JUMP JUMPDEST PUSH1 0x9 PUSH1 0x0 DUP4 DUP2 MSTORE PUSH1 0x20 ADD SWAP1 DUP2 MSTORE PUSH1 0x20 ADD PUSH1 0x0 KECCAK256 PUSH1 0x8 ADD SLOAD TIMESTAMP LT ISZERO PUSH2 0x1295 JUMPI PUSH1 0x3 SWAP1 POP PUSH2 0x12C6 JUMP JUMPDEST PUSH1 0x4 SWAP1 POP PUSH2 0x12C6 JUMP JUMPDEST JUMPDEST PUSH1 0x9 PUSH1 0x0 DUP4 DUP2 MSTORE PUSH1 0x20 ADD SWAP1 DUP2 MSTORE PUSH1 0x20 ADD PUSH1 0x0 KECCAK256 PUSH1 0x9 ADD PUSH1 0x0 SWAP1 SLOAD SWAP1 PUSH2 0x100 EXP SWAP1 DIV PUSH1 0xFF AND SWAP1 POP JUMPDEST SWAP2 SWAP1 POP JUMP JUMPDEST PUSH1 0x0 DUP1 PUSH2 0x12DA DUP4 PUSH1 0x1 SLOAD PUSH2 0x17C1 JUMP JUMPDEST SWAP2 POP DUP2 PUSH1 0x6 PUSH1 0x0 DUP3 DUP3 SLOAD PUSH2 0x12EE SWAP2 SWAP1 PUSH2 0x1F91 JUMP JUMPDEST SWAP3 POP POP DUP2 SWAP1 SSTORE POP DUP2 DUP4 PUSH2 0x1301 SWAP2 SWAP1 PUSH2 0x206B JUMP JUMPDEST SWAP1 POP SWAP2 POP SWAP2 JUMP JUMPDEST PUSH1 0x0 PUSH1 0x8 PUSH1 0x0 SWAP1 SLOAD SWAP1 PUSH2 0x100 EXP SWAP1 DIV PUSH20 0xFFFFFFFFFFFFFFFFFFFFFFFFFFFFFFFFFFFFFFFF AND PUSH20 0xFFFFFFFFFFFFFFFFFFFFFFFFFFFFFFFFFFFFFFFF AND PUSH4 0x70A08231 ADDRESS PUSH1 0x40 MLOAD DUP3 PUSH4 0xFFFFFFFF AND PUSH1 0xE0 SHL DUP2 MSTORE PUSH1 0x4 ADD PUSH2 0x1365 SWAP2 SWAP1 PUSH2 0x1B38 JUMP JUMPDEST PUSH1 0x20 PUSH1 0x40 MLOAD DUP1 DUP4 SUB DUP2 DUP7 GAS STATICCALL ISZERO DUP1 ISZERO PUSH2 0x1382 JUMPI RETURNDATASIZE PUSH1 0x0 DUP1 RETURNDATACOPY RETURNDATASIZE PUSH1 0x0 REVERT JUMPDEST POP POP POP POP PUSH1 0x40 MLOAD RETURNDATASIZE PUSH1 0x1F NOT PUSH1 0x1F DUP3 ADD AND DUP3 ADD DUP1 PUSH1 0x40 MSTORE POP DUP2 ADD SWAP1 PUSH2 0x13A6 SWAP2 SWAP1 PUSH2 0x20B4 JUMP JUMPDEST SWAP1 POP PUSH2 0x13D5 PUSH1 0x8 PUSH1 0x0 SWAP1 SLOAD SWAP1 PUSH2 0x100 EXP SWAP1 DIV PUSH20 0xFFFFFFFFFFFFFFFFFFFFFFFFFFFFFFFFFFFFFFFF AND DUP4 DUP6 PUSH2 0x17F2 JUMP JUMPDEST PUSH1 0x0 PUSH1 0x8 PUSH1 0x0 SWAP1 SLOAD SWAP1 PUSH2 0x100 EXP SWAP1 DIV PUSH20 0xFFFFFFFFFFFFFFFFFFFFFFFFFFFFFFFFFFFFFFFF AND PUSH20 0xFFFFFFFFFFFFFFFFFFFFFFFFFFFFFFFFFFFFFFFF AND PUSH4 0x70A08231 ADDRESS PUSH1 0x40 MLOAD DUP3 PUSH4 0xFFFFFFFF AND PUSH1 0xE0 SHL DUP2 MSTORE PUSH1 0x4 ADD PUSH2 0x1432 SWAP2 SWAP1 PUSH2 0x1B38 JUMP JUMPDEST PUSH1 0x20 PUSH1 0x40 MLOAD DUP1 DUP4 SUB DUP2 DUP7 GAS STATICCALL ISZERO DUP1 ISZERO PUSH2 0x144F JUMPI RETURNDATASIZE PUSH1 0x0 DUP1 RETURNDATACOPY RETURNDATASIZE PUSH1 0x0 REVERT JUMPDEST POP POP POP POP PUSH1 0x40 MLOAD RETURNDATASIZE PUSH1 0x1F NOT PUSH1 0x1F DUP3 ADD AND DUP3 ADD DUP1 PUSH1 0x40 MSTORE POP DUP2 ADD SWAP1 PUSH2 0x1473 SWAP2 SWAP1 PUSH2 0x20B4 JUMP JUMPDEST SWAP1 POP DUP4 DUP2 DUP4 PUSH2 0x1482 SWAP2 SWAP1 PUSH2 0x206B JUMP JUMPDEST EQ PUSH2 0x14B9 JUMPI PUSH1 0x40 MLOAD PUSH32 0x8E7572DA00000000000000000000000000000000000000000000000000000000 DUP2 MSTORE PUSH1 0x4 ADD PUSH1 0x40 MLOAD DUP1 SWAP2 SUB SWAP1 REVERT JUMPDEST POP POP POP POP JUMP JUMPDEST PUSH1 0x0 PUSH1 0x8 PUSH1 0x0 SWAP1 SLOAD SWAP1 PUSH2 0x100 EXP SWAP1 DIV PUSH20 0xFFFFFFFFFFFFFFFFFFFFFFFFFFFFFFFFFFFFFFFF AND PUSH20 0xFFFFFFFFFFFFFFFFFFFFFFFFFFFFFFFFFFFFFFFF AND PUSH4 0x70A08231 ADDRESS PUSH1 0x40 MLOAD DUP3 PUSH4 0xFFFFFFFF AND PUSH1 0xE0 SHL DUP2 MSTORE PUSH1 0x4 ADD PUSH2 0x151C SWAP2 SWAP1 PUSH2 0x1B38 JUMP JUMPDEST PUSH1 0x20 PUSH1 0x40 MLOAD DUP1 DUP4 SUB DUP2 DUP7 GAS STATICCALL ISZERO DUP1 ISZERO PUSH2 0x1539 JUMPI RETURNDATASIZE PUSH1 0x0 DUP1 RETURNDATACOPY RETURNDATASIZE PUSH1 0x0 REVERT JUMPDEST POP POP POP POP PUSH1 0x40 MLOAD RETURNDATASIZE PUSH1 0x1F NOT PUSH1 0x1F DUP3 ADD AND DUP3 ADD DUP1 PUSH1 0x40 MSTORE POP DUP2 ADD SWAP1 PUSH2 0x155D SWAP2 SWAP1 PUSH2 0x20B4 JUMP JUMPDEST SWAP1 POP PUSH2 0x158D PUSH1 0x8 PUSH1 0x0 SWAP1 SLOAD SWAP1 PUSH2 0x100 EXP SWAP1 DIV PUSH20 0xFFFFFFFFFFFFFFFFFFFFFFFFFFFFFFFFFFFFFFFF AND CALLER ADDRESS DUP6 PUSH2 0x1871 JUMP JUMPDEST PUSH1 0x0 PUSH1 0x8 PUSH1 0x0 SWAP1 SLOAD SWAP1 PUSH2 0x100 EXP SWAP1 DIV PUSH20 0xFFFFFFFFFFFFFFFFFFFFFFFFFFFFFFFFFFFFFFFF AND PUSH20 0xFFFFFFFFFFFFFFFFFFFFFFFFFFFFFFFFFFFFFFFF AND PUSH4 0x70A08231 ADDRESS PUSH1 0x40 MLOAD DUP3 PUSH4 0xFFFFFFFF AND PUSH1 0xE0 SHL DUP2 MSTORE PUSH1 0x4 ADD PUSH2 0x15EA SWAP2 SWAP1 PUSH2 0x1B38 JUMP JUMPDEST PUSH1 0x20 PUSH1 0x40 MLOAD DUP1 DUP4 SUB DUP2 DUP7 GAS STATICCALL ISZERO DUP1 ISZERO PUSH2 0x1607 JUMPI RETURNDATASIZE PUSH1 0x0 DUP1 RETURNDATACOPY RETURNDATASIZE PUSH1 0x0 REVERT JUMPDEST POP POP POP POP PUSH1 0x40 MLOAD RETURNDATASIZE PUSH1 0x1F NOT PUSH1 0x1F DUP3 ADD AND DUP3 ADD DUP1 PUSH1 0x40 MSTORE POP DUP2 ADD SWAP1 PUSH2 0x162B SWAP2 SWAP1 PUSH2 0x20B4 JUMP JUMPDEST SWAP1 POP DUP3 DUP3 DUP3 PUSH2 0x163A SWAP2 SWAP1 PUSH2 0x206B JUMP JUMPDEST EQ PUSH2 0x1671 JUMPI PUSH1 0x40 MLOAD PUSH32 0x8E7572DA00000000000000000000000000000000000000000000000000000000 DUP2 MSTORE PUSH1 0x4 ADD PUSH1 0x40 MLOAD DUP1 SWAP2 SUB SWAP1 REVERT JUMPDEST POP POP POP JUMP JUMPDEST PUSH2 0x167E PUSH2 0x18F3 JUMP JUMPDEST PUSH20 0xFFFFFFFFFFFFFFFFFFFFFFFFFFFFFFFFFFFFFFFF AND PUSH2 0x169C PUSH2 0xCD7 JUMP JUMPDEST PUSH20 0xFFFFFFFFFFFFFFFFFFFFFFFFFFFFFFFFFFFFFFFF AND EQ PUSH2 0x16FB JUMPI PUSH2 0x16BF PUSH2 0x18F3 JUMP JUMPDEST PUSH1 0x40 MLOAD PUSH32 0x118CDAA700000000000000000000000000000000000000000000000000000000 DUP2 MSTORE PUSH1 0x4 ADD PUSH2 0x16F2 SWAP2 SWAP1 PUSH2 0x1B38 JUMP JUMPDEST PUSH1 0x40 MLOAD DUP1 SWAP2 SUB SWAP1 REVERT JUMPDEST JUMP JUMPDEST PUSH1 0x0 DUP1 PUSH1 0x0 SWAP1 SLOAD SWAP1 PUSH2 0x100 EXP SWAP1 DIV PUSH20 0xFFFFFFFFFFFFFFFFFFFFFFFFFFFFFFFFFFFFFFFF AND SWAP1 POP DUP2 PUSH1 0x0 DUP1 PUSH2 0x100 EXP DUP2 SLOAD DUP2 PUSH20 0xFFFFFFFFFFFFFFFFFFFFFFFFFFFFFFFFFFFFFFFF MUL NOT AND SWAP1 DUP4 PUSH20 0xFFFFFFFFFFFFFFFFFFFFFFFFFFFFFFFFFFFFFFFF AND MUL OR SWAP1 SSTORE POP DUP2 PUSH20 0xFFFFFFFFFFFFFFFFFFFFFFFFFFFFFFFFFFFFFFFF AND DUP2 PUSH20 0xFFFFFFFFFFFFFFFFFFFFFFFFFFFFFFFFFFFFFFFF AND PUSH32 0x8BE0079C531659141344CD1FD0A4F28419497F9722A3DAAFE3B4186F6B6457E0 PUSH1 0x40 MLOAD PUSH1 0x40 MLOAD DUP1 SWAP2 SUB SWAP1 LOG3 POP POP JUMP JUMPDEST PUSH1 0x0 PUSH2 0x2710 DUP3 DUP5 PUSH2 0x17D2 SWAP2 SWAP1 PUSH2 0x20E1 JUMP JUMPDEST LT ISZERO PUSH2 0x17DD JUMPI PUSH1 0x0 DUP1 REVERT JUMPDEST PUSH2 0x17EA DUP4 DUP4 PUSH2 0x2710 PUSH2 0x18FB JUMP JUMPDEST SWAP1 POP SWAP3 SWAP2 POP POP JUMP JUMPDEST PUSH2 0x186C DUP4 DUP5 PUSH20 0xFFFFFFFFFFFFFFFFFFFFFFFFFFFFFFFFFFFFFFFF AND PUSH4 0xA9059CBB DUP6 DUP6 PUSH1 0x40 MLOAD PUSH1 0x24 ADD PUSH2 0x1825 SWAP3 SWAP2 SWAP1 PUSH2 0x2123 JUMP JUMPDEST PUSH1 0x40 MLOAD PUSH1 0x20 DUP2 DUP4 SUB SUB DUP2 MSTORE SWAP1 PUSH1 0x40 MSTORE SWAP2 POP PUSH1 0xE0 SHL PUSH1 0x20 DUP3 ADD DUP1 MLOAD PUSH28 0xFFFFFFFFFFFFFFFFFFFFFFFFFFFFFFFFFFFFFFFFFFFFFFFFFFFFFFFF DUP4 DUP2 DUP4 AND OR DUP4 MSTORE POP POP POP POP PUSH2 0x19E9 JUMP JUMPDEST POP POP POP JUMP JUMPDEST PUSH2 0x18ED DUP5 DUP6 PUSH20 0xFFFFFFFFFFFFFFFFFFFFFFFFFFFFFFFFFFFFFFFF AND PUSH4 0x23B872DD DUP7 DUP7 DUP7 PUSH1 0x40 MLOAD PUSH1 0x24 ADD PUSH2 0x18A6 SWAP4 SWAP3 SWAP2 SWAP1 PUSH2 0x214C JUMP JUMPDEST PUSH1 0x40 MLOAD PUSH1 0x20 DUP2 DUP4 SUB SUB DUP2 MSTORE SWAP1 PUSH1 0x40 MSTORE SWAP2 POP PUSH1 0xE0 SHL PUSH1 0x20 DUP3 ADD DUP1 MLOAD PUSH28 0xFFFFFFFFFFFFFFFFFFFFFFFFFFFFFFFFFFFFFFFFFFFFFFFFFFFFFFFF DUP4 DUP2 DUP4 AND OR DUP4 MSTORE POP POP POP POP PUSH2 0x19E9 JUMP JUMPDEST POP POP POP POP JUMP JUMPDEST PUSH1 0x0 CALLER SWAP1 POP SWAP1 JUMP JUMPDEST PUSH1 0x0 DUP1 DUP4 DUP6 MUL SWAP1 POP PUSH1 0x0 DUP1 NOT DUP6 DUP8 MULMOD DUP3 DUP2 LT DUP4 DUP3 SUB SUB SWAP2 POP POP PUSH1 0x0 DUP2 SUB PUSH2 0x1936 JUMPI DUP4 DUP3 DUP2 PUSH2 0x192C JUMPI PUSH2 0x192B PUSH2 0x2183 JUMP JUMPDEST JUMPDEST DIV SWAP3 POP POP POP PUSH2 0x19E2 JUMP JUMPDEST DUP1 DUP5 GT PUSH2 0x1956 JUMPI PUSH2 0x1955 PUSH2 0x1950 PUSH1 0x0 DUP7 EQ PUSH1 0x12 PUSH1 0x11 PUSH2 0x1A8B JUMP JUMPDEST PUSH2 0x1AA5 JUMP JUMPDEST JUMPDEST PUSH1 0x0 DUP5 DUP7 DUP9 MULMOD SWAP1 POP DUP3 DUP2 GT DUP3 SUB SWAP2 POP DUP1 DUP4 SUB SWAP3 POP PUSH1 0x0 DUP6 PUSH1 0x0 SUB DUP7 AND SWAP1 POP DUP1 DUP7 DIV SWAP6 POP DUP1 DUP5 DIV SWAP4 POP PUSH1 0x1 DUP2 DUP3 PUSH1 0x0 SUB DIV ADD SWAP1 POP DUP1 DUP4 MUL DUP5 OR SWAP4 POP PUSH1 0x0 PUSH1 0x2 DUP8 PUSH1 0x3 MUL XOR SWAP1 POP DUP1 DUP8 MUL PUSH1 0x2 SUB DUP2 MUL SWAP1 POP DUP1 DUP8 MUL PUSH1 0x2 SUB DUP2 MUL SWAP1 POP DUP1 DUP8 MUL PUSH1 0x2 SUB DUP2 MUL SWAP1 POP DUP1 DUP8 MUL PUSH1 0x2 SUB DUP2 MUL SWAP1 POP DUP1 DUP8 MUL PUSH1 0x2 SUB DUP2 MUL SWAP1 POP DUP1 DUP8 MUL PUSH1 0x2 SUB DUP2 MUL SWAP1 POP DUP1 DUP6 MUL SWAP6 POP POP POP POP POP POP JUMPDEST SWAP4 SWAP3 POP POP POP JUMP JUMPDEST PUSH1 0x0 DUP1 PUSH1 0x20 PUSH1 0x0 DUP5 MLOAD PUSH1 0x20 DUP7 ADD PUSH1 0x0 DUP9 GAS CALL DUP1 PUSH2 0x1A0C JUMPI PUSH1 0x40 MLOAD RETURNDATASIZE PUSH1 0x0 DUP3 RETURNDATACOPY RETURNDATASIZE DUP2 REVERT JUMPDEST RETURNDATASIZE SWAP3 POP PUSH1 0x0 MLOAD SWAP2 POP POP PUSH1 0x0 DUP3 EQ PUSH2 0x1A27 JUMPI PUSH1 0x1 DUP2 EQ ISZERO PUSH2 0x1A43 JUMP JUMPDEST PUSH1 0x0 DUP5 PUSH20 0xFFFFFFFFFFFFFFFFFFFFFFFFFFFFFFFFFFFFFFFF AND EXTCODESIZE EQ JUMPDEST ISZERO PUSH2 0x1A85 JUMPI DUP4 PUSH1 0x40 MLOAD PUSH32 0x5274AFE700000000000000000000000000000000000000000000000000000000 DUP2 MSTORE PUSH1 0x4 ADD PUSH2 0x1A7C SWAP2 SWAP1 PUSH2 0x1B38 JUMP JUMPDEST PUSH1 0x40 MLOAD DUP1 SWAP2 SUB SWAP1 REVERT JUMPDEST POP POP POP POP JUMP JUMPDEST PUSH1 0x0 PUSH2 0x1A96 DUP5 PUSH2 0x1AB7 JUMP JUMPDEST DUP3 DUP5 XOR MUL DUP3 XOR SWAP1 POP SWAP4 SWAP3 POP POP POP JUMP JUMPDEST PUSH4 0x4E487B71 PUSH1 0x0 MSTORE DUP1 PUSH1 0x20 MSTORE PUSH1 0x24 PUSH1 0x1C REVERT JUMPDEST PUSH1 0x0 DUP2 ISZERO ISZERO SWAP1 POP SWAP2 SWAP1 POP JUMP JUMPDEST PUSH1 0x0 DUP2 SWAP1 POP SWAP2 SWAP1 POP JUMP JUMPDEST PUSH2 0x1AD6 DUP2 PUSH2 0x1AC3 JUMP JUMPDEST DUP3 MSTORE POP POP JUMP JUMPDEST PUSH1 0x0 PUSH1 0x20 DUP3 ADD SWAP1 POP PUSH2 0x1AF1 PUSH1 0x0 DUP4 ADD DUP5 PUSH2 0x1ACD JUMP JUMPDEST SWAP3 SWAP2 POP POP JUMP JUMPDEST PUSH1 0x0 PUSH20 0xFFFFFFFFFFFFFFFFFFFFFFFFFFFFFFFFFFFFFFFF DUP3 AND SWAP1 POP SWAP2 SWAP1 POP JUMP JUMPDEST PUSH1 0x0 PUSH2 0x1B22 DUP3 PUSH2 0x1AF7 JUMP JUMPDEST SWAP1 POP SWAP2 SWAP1 POP JUMP JUMPDEST PUSH2 0x1B32 DUP2 PUSH2 0x1B17 JUMP JUMPDEST DUP3 MSTORE POP POP JUMP JUMPDEST PUSH1 0x0 PUSH1 0x20 DUP3 ADD SWAP1 POP PUSH2 0x1B4D PUSH1 0x0 DUP4 ADD DUP5 PUSH2 0x1B29 JUMP JUMPDEST SWAP3 SWAP2 POP POP JUMP JUMPDEST PUSH1 0x0 DUP1 REVERT JUMPDEST PUSH1 0x0 DUP2 SWAP1 POP SWAP2 SWAP1 POP JUMP JUMPDEST PUSH2 0x1B6B DUP2 PUSH2 0x1B58 JUMP JUMPDEST DUP2 EQ PUSH2 0x1B76 JUMPI PUSH1 0x0 DUP1 REVERT JUMPDEST POP JUMP JUMPDEST PUSH1 0x0 DUP2 CALLDATALOAD SWAP1 POP PUSH2 0x1B88 DUP2 PUSH2 0x1B62 JUMP JUMPDEST SWAP3 SWAP2 POP POP JUMP JUMPDEST PUSH1 0x0 PUSH1 0x20 DUP3 DUP5 SUB SLT ISZERO PUSH2 0x1BA4 JUMPI PUSH2 0x1BA3 PUSH2 0x1B53 JUMP JUMPDEST JUMPDEST PUSH1 0x0 PUSH2 0x1BB2 DUP5 DUP3 DUP6 ADD PUSH2 0x1B79 JUMP JUMPDEST SWAP2 POP POP SWAP3 SWAP2 POP POP JUMP JUMPDEST PUSH32 0x4E487B7100000000000000000000000000000000000000000000000000000000 PUSH1 0x0 MSTORE PUSH1 0x21 PUSH1 0x4 MSTORE PUSH1 0x24 PUSH1 0x0 REVERT JUMPDEST PUSH1 0x5 DUP2 LT PUSH2 0x1BFB JUMPI PUSH2 0x1BFA PUSH2 0x1BBB JUMP JUMPDEST JUMPDEST POP JUMP JUMPDEST PUSH1 0x0 DUP2 SWAP1 POP PUSH2 0x1C0C DUP3 PUSH2 0x1BEA JUMP JUMPDEST SWAP2 SWAP1 POP JUMP JUMPDEST PUSH1 0x0 PUSH2 0x1C1C DUP3 PUSH2 0x1BFE JUMP JUMPDEST SWAP1 POP SWAP2 SWAP1 POP JUMP JUMPDEST PUSH2 0x1C2C DUP2 PUSH2 0x1C11 JUMP JUMPDEST DUP3 MSTORE POP POP JUMP JUMPDEST PUSH2 0x1C3B DUP2 PUSH2 0x1B58 JUMP JUMPDEST DUP3 MSTORE POP POP JUMP JUMPDEST PUSH1 0x0 PUSH2 0x160 DUP3 ADD SWAP1 POP PUSH2 0x1C57 PUSH1 0x0 DUP4 ADD DUP15 PUSH2 0x1ACD JUMP JUMPDEST PUSH2 0x1C64 PUSH1 0x20 DUP4 ADD DUP14 PUSH2 0x1ACD JUMP JUMPDEST PUSH2 0x1C71 PUSH1 0x40 DUP4 ADD DUP13 PUSH2 0x1ACD JUMP JUMPDEST PUSH2 0x1C7E PUSH1 0x60 DUP4 ADD DUP12 PUSH2 0x1ACD JUMP JUMPDEST PUSH2 0x1C8B PUSH1 0x80 DUP4 ADD DUP11 PUSH2 0x1B29 JUMP JUMPDEST PUSH2 0x1C98 PUSH1 0xA0 DUP4 ADD DUP10 PUSH2 0x1B29 JUMP JUMPDEST PUSH2 0x1CA5 PUSH1 0xC0 DUP4 ADD DUP9 PUSH2 0x1ACD JUMP JUMPDEST PUSH2 0x1CB2 PUSH1 0xE0 DUP4 ADD DUP8 PUSH2 0x1ACD JUMP JUMPDEST PUSH2 0x1CC0 PUSH2 0x100 DUP4 ADD DUP7 PUSH2 0x1ACD JUMP JUMPDEST PUSH2 0x1CCE PUSH2 0x120 DUP4 ADD DUP6 PUSH2 0x1C23 JUMP JUMPDEST PUSH2 0x1CDC PUSH2 0x140 DUP4 ADD DUP5 PUSH2 0x1C32 JUMP JUMPDEST SWAP13 SWAP12 POP POP POP POP POP POP POP POP POP POP POP POP JUMP JUMPDEST PUSH2 0x1CF5 DUP2 PUSH2 0x1AC3 JUMP JUMPDEST DUP2 EQ PUSH2 0x1D00 JUMPI PUSH1 0x0 DUP1 REVERT JUMPDEST POP JUMP JUMPDEST PUSH1 0x0 DUP2 CALLDATALOAD SWAP1 POP PUSH2 0x1D12 DUP2 PUSH2 0x1CEC JUMP JUMPDEST SWAP3 SWAP2 POP POP JUMP JUMPDEST PUSH1 0x0 DUP1 PUSH1 0x40 DUP4 DUP6 SUB SLT ISZERO PUSH2 0x1D2F JUMPI PUSH2 0x1D2E PUSH2 0x1B53 JUMP JUMPDEST JUMPDEST PUSH1 0x0 PUSH2 0x1D3D DUP6 DUP3 DUP7 ADD PUSH2 0x1B79 JUMP JUMPDEST SWAP3 POP POP PUSH1 0x20 PUSH2 0x1D4E DUP6 DUP3 DUP7 ADD PUSH2 0x1D03 JUMP JUMPDEST SWAP2 POP POP SWAP3 POP SWAP3 SWAP1 POP JUMP JUMPDEST PUSH1 0x0 DUP2 SWAP1 POP SWAP2 SWAP1 POP JUMP JUMPDEST PUSH1 0x0 PUSH2 0x1D7D PUSH2 0x1D78 PUSH2 0x1D73 DUP5 PUSH2 0x1AF7 JUMP JUMPDEST PUSH2 0x1D58 JUMP JUMPDEST PUSH2 0x1AF7 JUMP JUMPDEST SWAP1 POP SWAP2 SWAP1 POP JUMP JUMPDEST PUSH1 0x0 PUSH2 0x1D8F DUP3 PUSH2 0x1D62 JUMP JUMPDEST SWAP1 POP SWAP2 SWAP1 POP JUMP JUMPDEST PUSH1 0x0 PUSH2 0x1DA1 DUP3 PUSH2 0x1D84 JUMP JUMPDEST SWAP1 POP SWAP2 SWAP1 POP JUMP JUMPDEST PUSH2 0x1DB1 DUP2 PUSH2 0x1D96 JUMP JUMPDEST DUP3 MSTORE POP POP JUMP JUMPDEST PUSH1 0x0 PUSH1 0x20 DUP3 ADD SWAP1 POP PUSH2 0x1DCC PUSH1 0x0 DUP4 ADD DUP5 PUSH2 0x1DA8 JUMP JUMPDEST SWAP3 SWAP2 POP POP JUMP JUMPDEST PUSH2 0x1DDB DUP2 PUSH2 0x1B17 JUMP JUMPDEST DUP2 EQ PUSH2 0x1DE6 JUMPI PUSH1 0x0 DUP1 REVERT JUMPDEST POP JUMP JUMPDEST PUSH1 0x0 DUP2 CALLDATALOAD SWAP1 POP PUSH2 0x1DF8 DUP2 PUSH2 0x1DD2 JUMP JUMPDEST SWAP3 SWAP2 POP POP JUMP JUMPDEST PUSH1 0x0 DUP1 PUSH1 0x40 DUP4 DUP6 SUB SLT ISZERO PUSH2 0x1E15 JUMPI PUSH2 0x1E14 PUSH2 0x1B53 JUMP JUMPDEST JUMPDEST PUSH1 0x0 PUSH2 0x1E23 DUP6 DUP3 DUP7 ADD PUSH2 0x1B79 JUMP JUMPDEST SWAP3 POP POP PUSH1 0x20 PUSH2 0x1E34 DUP6 DUP3 DUP7 ADD PUSH2 0x1DE9 JUMP JUMPDEST SWAP2 POP POP SWAP3 POP SWAP3 SWAP1 POP JUMP JUMPDEST PUSH1 0x0 DUP2 ISZERO ISZERO SWAP1 POP SWAP2 SWAP1 POP JUMP JUMPDEST PUSH2 0x1E53 DUP2 PUSH2 0x1E3E JUMP JUMPDEST DUP3 MSTORE POP POP JUMP JUMPDEST PUSH1 0x0 PUSH1 0x40 DUP3 ADD SWAP1 POP PUSH2 0x1E6E PUSH1 0x0 DUP4 ADD DUP6 PUSH2 0x1E4A JUMP JUMPDEST PUSH2 0x1E7B PUSH1 0x20 DUP4 ADD DUP5 PUSH2 0x1ACD JUMP JUMPDEST SWAP4 SWAP3 POP POP POP JUMP JUMPDEST PUSH1 0x0 PUSH1 0x20 DUP3 DUP5 SUB SLT ISZERO PUSH2 0x1E98 JUMPI PUSH2 0x1E97 PUSH2 0x1B53 JUMP JUMPDEST JUMPDEST PUSH1 0x0 PUSH2 0x1EA6 DUP5 DUP3 DUP6 ADD PUSH2 0x1DE9 JUMP JUMPDEST SWAP2 POP POP SWAP3 SWAP2 POP POP JUMP JUMPDEST PUSH1 0x0 PUSH1 0x20 DUP3 ADD SWAP1 POP PUSH2 0x1EC4 PUSH1 0x0 DUP4 ADD DUP5 PUSH2 0x1C23 JUMP JUMPDEST SWAP3 SWAP2 POP POP JUMP JUMPDEST PUSH1 0x0 PUSH1 0x80 DUP3 ADD SWAP1 POP PUSH2 0x1EDF PUSH1 0x0 DUP4 ADD DUP8 PUSH2 0x1C32 JUMP JUMPDEST PUSH2 0x1EEC PUSH1 0x20 DUP4 ADD DUP7 PUSH2 0x1C23 JUMP JUMPDEST PUSH2 0x1EF9 PUSH1 0x40 DUP4 ADD DUP6 PUSH2 0x1B29 JUMP JUMPDEST PUSH2 0x1F06 PUSH1 0x60 DUP4 ADD DUP5 PUSH2 0x1ACD JUMP JUMPDEST SWAP6 SWAP5 POP POP POP POP POP JUMP JUMPDEST PUSH1 0x0 PUSH1 0xA0 DUP3 ADD SWAP1 POP PUSH2 0x1F24 PUSH1 0x0 DUP4 ADD DUP9 PUSH2 0x1C32 JUMP JUMPDEST PUSH2 0x1F31 PUSH1 0x20 DUP4 ADD DUP8 PUSH2 0x1C23 JUMP JUMPDEST PUSH2 0x1F3E PUSH1 0x40 DUP4 ADD DUP7 PUSH2 0x1B29 JUMP JUMPDEST PUSH2 0x1F4B PUSH1 0x60 DUP4 ADD DUP6 PUSH2 0x1ACD JUMP JUMPDEST PUSH2 0x1F58 PUSH1 0x80 DUP4 ADD DUP5 PUSH2 0x1ACD JUMP JUMPDEST SWAP7 SWAP6 POP POP POP POP POP POP JUMP JUMPDEST PUSH32 0x4E487B7100000000000000000000000000000000000000000000000000000000 PUSH1 0x0 MSTORE PUSH1 0x11 PUSH1 0x4 MSTORE PUSH1 0x24 PUSH1 0x0 REVERT JUMPDEST PUSH1 0x0 PUSH2 0x1F9C DUP3 PUSH2 0x1AC3 JUMP JUMPDEST SWAP2 POP PUSH2 0x1FA7 DUP4 PUSH2 0x1AC3 JUMP JUMPDEST SWAP3 POP DUP3 DUP3 ADD SWAP1 POP DUP1 DUP3 GT ISZERO PUSH2 0x1FBF JUMPI PUSH2 0x1FBE PUSH2 0x1F62 JUMP JUMPDEST JUMPDEST SWAP3 SWAP2 POP POP JUMP JUMPDEST PUSH1 0x0 PUSH1 0x60 DUP3 ADD SWAP1 POP PUSH2 0x1FDA PUSH1 0x0 DUP4 ADD DUP7 PUSH2 0x1C32 JUMP JUMPDEST PUSH2 0x1FE7 PUSH1 0x20 DUP4 ADD DUP6 PUSH2 0x1C23 JUMP JUMPDEST PUSH2 0x1FF4 PUSH1 0x40 DUP4 ADD DUP5 PUSH2 0x1B29 JUMP JUMPDEST SWAP5 SWAP4 POP POP POP POP JUMP JUMPDEST PUSH1 0x0 PUSH1 0xE0 DUP3 ADD SWAP1 POP PUSH2 0x2011 PUSH1 0x0 DUP4 ADD DUP11 PUSH2 0x1C32 JUMP JUMPDEST PUSH2 0x201E PUSH1 0x20 DUP4 ADD DUP10 PUSH2 0x1C23 JUMP JUMPDEST PUSH2 0x202B PUSH1 0x40 DUP4 ADD DUP9 PUSH2 0x1B29 JUMP JUMPDEST PUSH2 0x2038 PUSH1 0x60 DUP4 ADD DUP8 PUSH2 0x1ACD JUMP JUMPDEST PUSH2 0x2045 PUSH1 0x80 DUP4 ADD DUP7 PUSH2 0x1ACD JUMP JUMPDEST PUSH2 0x2052 PUSH1 0xA0 DUP4 ADD DUP6 PUSH2 0x1ACD JUMP JUMPDEST PUSH2 0x205F PUSH1 0xC0 DUP4 ADD DUP5 PUSH2 0x1ACD JUMP JUMPDEST SWAP9 SWAP8 POP POP POP POP POP POP POP POP JUMP JUMPDEST PUSH1 0x0 PUSH2 0x2076 DUP3 PUSH2 0x1AC3 JUMP JUMPDEST SWAP2 POP PUSH2 0x2081 DUP4 PUSH2 0x1AC3 JUMP JUMPDEST SWAP3 POP DUP3 DUP3 SUB SWAP1 POP DUP2 DUP2 GT ISZERO PUSH2 0x2099 JUMPI PUSH2 0x2098 PUSH2 0x1F62 JUMP JUMPDEST JUMPDEST SWAP3 SWAP2 POP POP JUMP JUMPDEST PUSH1 0x0 DUP2 MLOAD SWAP1 POP PUSH2 0x20AE DUP2 PUSH2 0x1CEC JUMP JUMPDEST SWAP3 SWAP2 POP POP JUMP JUMPDEST PUSH1 0x0 PUSH1 0x20 DUP3 DUP5 SUB SLT ISZERO PUSH2 0x20CA JUMPI PUSH2 0x20C9 PUSH2 0x1B53 JUMP JUMPDEST JUMPDEST PUSH1 0x0 PUSH2 0x20D8 DUP5 DUP3 DUP6 ADD PUSH2 0x209F JUMP JUMPDEST SWAP2 POP POP SWAP3 SWAP2 POP POP JUMP JUMPDEST PUSH1 0x0 PUSH2 0x20EC DUP3 PUSH2 0x1AC3 JUMP JUMPDEST SWAP2 POP PUSH2 0x20F7 DUP4 PUSH2 0x1AC3 JUMP JUMPDEST SWAP3 POP DUP3 DUP3 MUL PUSH2 0x2105 DUP2 PUSH2 0x1AC3 JUMP JUMPDEST SWAP2 POP DUP3 DUP3 DIV DUP5 EQ DUP4 ISZERO OR PUSH2 0x211C JUMPI PUSH2 0x211B PUSH2 0x1F62 JUMP JUMPDEST JUMPDEST POP SWAP3 SWAP2 POP POP JUMP JUMPDEST PUSH1 0x0 PUSH1 0x40 DUP3 ADD SWAP1 POP PUSH2 0x2138 PUSH1 0x0 DUP4 ADD DUP6 PUSH2 0x1B29 JUMP JUMPDEST PUSH2 0x2145 PUSH1 0x20 DUP4 ADD DUP5 PUSH2 0x1ACD JUMP JUMPDEST SWAP4 SWAP3 POP POP POP JUMP JUMPDEST PUSH1 0x0 PUSH1 0x60 DUP3 ADD SWAP1 POP PUSH2 0x2161 PUSH1 0x0 DUP4 ADD DUP7 PUSH2 0x1B29 JUMP JUMPDEST PUSH2 0x216E PUSH1 0x20 DUP4 ADD DUP6 PUSH2 0x1B29 JUMP JUMPDEST PUSH2 0x217B PUSH1 0x40 DUP4 ADD DUP5 PUSH2 0x1ACD JUMP JUMPDEST SWAP5 SWAP4 POP POP POP POP JUMP JUMPDEST PUSH32 0x4E487B7100000000000000000000000000000000000000000000000000000000 PUSH1 0x0 MSTORE PUSH1 0x12 PUSH1 0x4 MSTORE PUSH1 0x24 PUSH1 0x0 REVERT INVALID LOG2 PUSH5 0x6970667358 0x22 SLT KECCAK256 SWAP5 MSIZE 0xB2 SWAP7 0xCB 0xA9 SWAP13 0xBF SWAP8 0xC6 CREATE SWAP3 SWAP1 MULMOD 0xAA 0x1F PUSH8 0x52E0477780911F59 SDIV DUP7 0xB7 0xEE SWAP11 GAS SIGNEXTEND PUSH5 0x736F6C6343 STOP ADDMOD SHR STOP CALLER "
        },
        "methodIdentifiers": {
          "accumulatedFee()": "f8ce3164",
          "adminFeeBps()": "e6f0681c",
          "closeQuiz(bytes32)": "5f49bde3",
          "entryFee()": "072ea61c",
          "feeAddress()": "41275358",
          "joinPeriod()": "b514832d",
          "joinQuiz(bytes32)": "694d3d38",
          "lwt()": "a63ed2e4",
          "owner()": "8da5cb5b",
          "participants(bytes32,address)": "a79a2c78",
          "quizDuration()": "b22a10d2",
          "quizzes(bytes32)": "4a91466e",
          "renounceOwnership()": "715018a6",
          "startQuiz(bytes32)": "9c770b79",
          "submitPeriod()": "4e5500be",
          "submitScore(bytes32,uint256)": "512fed43",
          "transferOwnership(address)": "f2fde38b"
        }
      }
    }
  }
}