{
  "_format": "hh-sol-artifact-1",
  "contractName": "LearnWayPOC",
  "sourceName": "contracts/LearnWayPOC.sol",
  "abi": [
    {
      "inputs": [
        {
          "internalType": "address",
          "name": "_lwtAddress",
          "type": "address"
        }
      ],
      "stateMutability": "nonpayable",
      "type": "constructor"
    },
    {
      "inputs": [
        {
          "internalType": "enum LearnWayPOC.QuizState",
          "name": "_state",
          "type": "uint8"
        }
      ],
      "name": "InvalidState",
      "type": "error"
    },
    {
      "inputs": [],
      "name": "InvalidTotalStake",
      "type": "error"
    },
    {
      "inputs": [],
      "name": "InvalidWinner",
      "type": "error"
    },
    {
      "inputs": [],
      "name": "InvariantCheckFailed",
      "type": "error"
    },
    {
      "inputs": [],
      "name": "IsParticipant",
      "type": "error"
    },
    {
      "inputs": [],
      "name": "NotParticipant",
      "type": "error"
    },
    {
      "inputs": [
        {
          "internalType": "address",
          "name": "owner",
          "type": "address"
        }
      ],
      "name": "OwnableInvalidOwner",
      "type": "error"
    },
    {
      "inputs": [
        {
          "internalType": "address",
          "name": "account",
          "type": "address"
        }
      ],
      "name": "OwnableUnauthorizedAccount",
      "type": "error"
    },
    {
      "inputs": [],
      "name": "ParticipantAlreadySubmitted",
      "type": "error"
    },
    {
      "inputs": [],
      "name": "QuizExists",
      "type": "error"
    },
    {
      "inputs": [],
      "name": "QuizMissing",
      "type": "error"
    },
    {
      "inputs": [
        {
          "internalType": "address",
          "name": "token",
          "type": "address"
        }
      ],
      "name": "SafeERC20FailedOperation",
      "type": "error"
    },
    {
      "inputs": [],
      "name": "ZeroAddress",
      "type": "error"
    },
    {
      "inputs": [],
      "name": "ZeroNumber",
      "type": "error"
    },
    {
      "anonymous": false,
      "inputs": [
        {
          "indexed": true,
          "internalType": "address",
          "name": "previousOwner",
          "type": "address"
        },
        {
          "indexed": true,
          "internalType": "address",
          "name": "newOwner",
          "type": "address"
        }
      ],
      "name": "OwnershipTransferred",
      "type": "event"
    },
    {
      "anonymous": false,
      "inputs": [
        {
          "indexed": false,
          "internalType": "bytes32",
          "name": "quizHash",
          "type": "bytes32"
        },
        {
          "indexed": false,
          "internalType": "enum LearnWayPOC.QuizState",
          "name": "state",
          "type": "uint8"
        },
        {
          "indexed": false,
          "internalType": "address",
          "name": "participant",
          "type": "address"
        },
        {
          "indexed": false,
          "internalType": "uint256",
          "name": "score",
          "type": "uint256"
        }
      ],
      "name": "PartipantEvaluated",
      "type": "event"
    },
    {
      "anonymous": false,
      "inputs": [
        {
          "indexed": false,
          "internalType": "bytes32",
          "name": "quizHash",
          "type": "bytes32"
        },
        {
          "indexed": false,
          "internalType": "enum LearnWayPOC.QuizState",
          "name": "state",
          "type": "uint8"
        },
        {
          "indexed": false,
          "internalType": "address",
          "name": "participant",
          "type": "address"
        }
      ],
      "name": "PartipantJoined",
      "type": "event"
    },
    {
      "anonymous": false,
      "inputs": [
        {
          "indexed": false,
          "internalType": "bytes32",
          "name": "quizHash",
          "type": "bytes32"
        },
        {
          "indexed": false,
          "internalType": "enum LearnWayPOC.QuizState",
          "name": "state",
          "type": "uint8"
        },
        {
          "indexed": false,
          "internalType": "address",
          "name": "winner",
          "type": "address"
        },
        {
          "indexed": false,
          "internalType": "uint256",
          "name": "won",
          "type": "uint256"
        },
        {
          "indexed": false,
          "internalType": "uint256",
          "name": "fee",
          "type": "uint256"
        }
      ],
      "name": "QuizClosed",
      "type": "event"
    },
    {
      "anonymous": false,
      "inputs": [
        {
          "indexed": false,
          "internalType": "bytes32",
          "name": "quizHash",
          "type": "bytes32"
        },
        {
          "indexed": false,
          "internalType": "enum LearnWayPOC.QuizState",
          "name": "state",
          "type": "uint8"
        },
        {
          "indexed": false,
          "internalType": "address",
          "name": "operator",
          "type": "address"
        },
        {
          "indexed": false,
          "internalType": "uint256",
          "name": "entryFee",
          "type": "uint256"
        },
        {
          "indexed": false,
          "internalType": "uint256",
          "name": "joinTime",
          "type": "uint256"
        },
        {
          "indexed": false,
          "internalType": "uint256",
          "name": "endTime",
          "type": "uint256"
        },
        {
          "indexed": false,
          "internalType": "uint256",
          "name": "submitTime",
          "type": "uint256"
        }
      ],
      "name": "QuizOpened",
      "type": "event"
    },
    {
      "inputs": [],
      "name": "accumulatedFee",
      "outputs": [
        {
          "internalType": "uint256",
          "name": "",
          "type": "uint256"
        }
      ],
      "stateMutability": "view",
      "type": "function"
    },
    {
      "inputs": [],
      "name": "adminFeeBps",
      "outputs": [
        {
          "internalType": "uint256",
          "name": "",
          "type": "uint256"
        }
      ],
      "stateMutability": "view",
      "type": "function"
    },
    {
      "inputs": [
        {
          "internalType": "bytes32",
          "name": "_quizHash",
          "type": "bytes32"
        }
      ],
      "name": "closeQuiz",
      "outputs": [],
      "stateMutability": "nonpayable",
      "type": "function"
    },
    {
      "inputs": [],
      "name": "entryFee",
      "outputs": [
        {
          "internalType": "uint256",
          "name": "",
          "type": "uint256"
        }
      ],
      "stateMutability": "view",
      "type": "function"
    },
    {
      "inputs": [],
      "name": "feeAddress",
      "outputs": [
        {
          "internalType": "address",
          "name": "",
          "type": "address"
        }
      ],
      "stateMutability": "view",
      "type": "function"
    },
    {
      "inputs": [],
      "name": "joinPeriod",
      "outputs": [
        {
          "internalType": "uint256",
          "name": "",
          "type": "uint256"
        }
      ],
      "stateMutability": "view",
      "type": "function"
    },
    {
      "inputs": [
        {
          "internalType": "bytes32",
          "name": "_quizHash",
          "type": "bytes32"
        }
      ],
      "name": "joinQuiz",
      "outputs": [],
      "stateMutability": "nonpayable",
      "type": "function"
    },
    {
      "inputs": [],
      "name": "lwt",
      "outputs": [
        {
          "internalType": "contract IERC20",
          "name": "",
          "type": "address"
        }
      ],
      "stateMutability": "view",
      "type": "function"
    },
    {
      "inputs": [],
      "name": "owner",
      "outputs": [
        {
          "internalType": "address",
          "name": "",
          "type": "address"
        }
      ],
      "stateMutability": "view",
      "type": "function"
    },
    {
      "inputs": [
        {
          "internalType": "bytes32",
          "name": "",
          "type": "bytes32"
        },
        {
          "internalType": "address",
          "name": "",
          "type": "address"
        }
      ],
      "name": "participants",
      "outputs": [
        {
          "internalType": "bool",
          "name": "playing",
          "type": "bool"
        },
        {
          "internalType": "uint256",
          "name": "score",
          "type": "uint256"
        }
      ],
      "stateMutability": "view",
      "type": "function"
    },
    {
      "inputs": [],
      "name": "quizDuration",
      "outputs": [
        {
          "internalType": "uint256",
          "name": "",
          "type": "uint256"
        }
      ],
      "stateMutability": "view",
      "type": "function"
    },
    {
      "inputs": [
        {
          "internalType": "bytes32",
          "name": "",
          "type": "bytes32"
        }
      ],
      "name": "quizzes",
      "outputs": [
        {
          "internalType": "uint256",
          "name": "participants",
          "type": "uint256"
        },
        {
          "internalType": "uint256",
          "name": "highestScore",
          "type": "uint256"
        },
        {
          "internalType": "uint256",
          "name": "totalStake",
          "type": "uint256"
        },
        {
          "internalType": "uint256",
          "name": "entryFee",
          "type": "uint256"
        },
        {
          "internalType": "address",
          "name": "topScorer",
          "type": "address"
        },
        {
          "internalType": "address",
          "name": "operator",
          "type": "address"
        },
        {
          "internalType": "uint256",
          "name": "joinTime",
          "type": "uint256"
        },
        {
          "internalType": "uint256",
          "name": "endTime",
          "type": "uint256"
        },
        {
          "internalType": "uint256",
          "name": "submitTime",
          "type": "uint256"
        },
        {
          "internalType": "enum LearnWayPOC.QuizState",
          "name": "state",
          "type": "uint8"
        },
        {
          "internalType": "bytes32",
          "name": "offchianHash",
          "type": "bytes32"
        }
      ],
      "stateMutability": "view",
      "type": "function"
    },
    {
      "inputs": [],
      "name": "renounceOwnership",
      "outputs": [],
      "stateMutability": "nonpayable",
      "type": "function"
    },
    {
      "inputs": [
        {
          "internalType": "bytes32",
          "name": "_quizHash",
          "type": "bytes32"
        }
      ],
      "name": "startQuiz",
      "outputs": [],
      "stateMutability": "nonpayable",
      "type": "function"
    },
    {
      "inputs": [],
      "name": "submitPeriod",
      "outputs": [
        {
          "internalType": "uint256",
          "name": "",
          "type": "uint256"
        }
      ],
      "stateMutability": "view",
      "type": "function"
    },
    {
      "inputs": [
        {
          "internalType": "bytes32",
          "name": "_quizHash",
          "type": "bytes32"
        },
        {
          "internalType": "uint256",
          "name": "_score",
          "type": "uint256"
        }
      ],
      "name": "submitScore",
      "outputs": [],
      "stateMutability": "nonpayable",
      "type": "function"
    },
    {
      "inputs": [
        {
          "internalType": "address",
          "name": "newOwner",
          "type": "address"
        }
      ],
      "name": "transferOwnership",
      "outputs": [],
      "stateMutability": "nonpayable",
      "type": "function"
    }
  ],
  "bytecode": "0x60806040526101f46001556802b5e3af16b188000060025561012c600355610384600455610258600555600060065534801561003a57600080fd5b506040516124dc3803806124dc833981810160405281019061005c919061028e565b33600073ffffffffffffffffffffffffffffffffffffffff168173ffffffffffffffffffffffffffffffffffffffff16036100cf5760006040517f1e4fbdf70000000000000000000000000000000000000000000000000000000081526004016100c691906102ca565b60405180910390fd5b6100de8161016760201b60201c565b5080600860006101000a81548173ffffffffffffffffffffffffffffffffffffffff021916908373ffffffffffffffffffffffffffffffffffffffff16021790555033600760006101000a81548173ffffffffffffffffffffffffffffffffffffffff021916908373ffffffffffffffffffffffffffffffffffffffff160217905550506102e5565b60008060009054906101000a900473ffffffffffffffffffffffffffffffffffffffff169050816000806101000a81548173ffffffffffffffffffffffffffffffffffffffff021916908373ffffffffffffffffffffffffffffffffffffffff1602179055508173ffffffffffffffffffffffffffffffffffffffff168173ffffffffffffffffffffffffffffffffffffffff167f8be0079c531659141344cd1fd0a4f28419497f9722a3daafe3b4186f6b6457e060405160405180910390a35050565b600080fd5b600073ffffffffffffffffffffffffffffffffffffffff82169050919050565b600061025b82610230565b9050919050565b61026b81610250565b811461027657600080fd5b50565b60008151905061028881610262565b92915050565b6000602082840312156102a4576102a361022b565b5b60006102b284828501610279565b91505092915050565b6102c481610250565b82525050565b60006020820190506102df60008301846102bb565b92915050565b6121e8806102f46000396000f3fe608060405234801561001057600080fd5b506004361061010b5760003560e01c80638da5cb5b116100a2578063b22a10d211610071578063b22a10d21461028b578063b514832d146102a9578063e6f0681c146102c7578063f2fde38b146102e5578063f8ce3164146103015761010b565b80638da5cb5b146102025780639c770b7914610220578063a63ed2e41461023c578063a79a2c781461025a5761010b565b8063512fed43116100de578063512fed43146101a45780635f49bde3146101c0578063694d3d38146101dc578063715018a6146101f85761010b565b8063072ea61c14610110578063412753581461012e5780634a91466e1461014c5780634e5500be14610186575b600080fd5b61011861031f565b6040516101259190611adc565b60405180910390f35b610136610325565b6040516101439190611b38565b60405180910390f35b61016660048036038101906101619190611b8e565b61034b565b60405161017d9b9a99989796959493929190611c41565b60405180910390f35b61018e6103f2565b60405161019b9190611adc565b60405180910390f35b6101be60048036038101906101b99190611d18565b6103f8565b005b6101da60048036038101906101d59190611b8e565b61075c565b005b6101f660048036038101906101f19190611b8e565b6109ec565b005b610200610cc3565b005b61020a610cd7565b6040516102179190611b38565b60405180910390f35b61023a60048036038101906102359190611b8e565b610d00565b005b6102446110d7565b6040516102519190611db7565b60405180910390f35b610274600480360381019061026f9190611dfe565b6110fd565b604051610282929190611e59565b60405180910390f35b61029361113b565b6040516102a09190611adc565b60405180910390f35b6102b1611141565b6040516102be9190611adc565b60405180910390f35b6102cf611147565b6040516102dc9190611adc565b60405180910390f35b6102ff60048036038101906102fa9190611e82565b61114d565b005b6103096111d3565b6040516103169190611adc565b60405180910390f35b60025481565b600760009054906101000a900473ffffffffffffffffffffffffffffffffffffffff1681565b60096020528060005260406000206000915090508060000154908060010154908060020154908060030154908060040160009054906101000a900473ffffffffffffffffffffffffffffffffffffffff16908060050160009054906101000a900473ffffffffffffffffffffffffffffffffffffffff16908060060154908060070154908060080154908060090160009054906101000a900460ff169080600a015490508b565b60055481565b816000600960008381526020019081526020016000206000015403610449576040517f35a71ca300000000000000000000000000000000000000000000000000000000815260040160405180910390fd5b8160008103610484576040517f99d1d12f00000000000000000000000000000000000000000000000000000000815260040160405180910390fd5b83600380600481111561049a57610499611bbb565b5b6104a3836111d9565b60048111156104b5576104b4611bbb565b5b146104ff576104c3826111d9565b6040517fd07e89760000000000000000000000000000000000000000000000000000000081526004016104f69190611eaf565b60405180910390fd5b8533600a600083815260200190815260200160002060008273ffffffffffffffffffffffffffffffffffffffff1673ffffffffffffffffffffffffffffffffffffffff16815260200190815260200160002060000160009054906101000a900460ff16610598576040517fe438f8ce00000000000000000000000000000000000000000000000000000000815260040160405180910390fd5b6000600a60008a815260200190815260200160002060003373ffffffffffffffffffffffffffffffffffffffff1673ffffffffffffffffffffffffffffffffffffffff168152602001908152602001600020600101541115610626576040517fd75b177c00000000000000000000000000000000000000000000000000000000815260040160405180910390fd5b86600a60008a815260200190815260200160002060003373ffffffffffffffffffffffffffffffffffffffff1673ffffffffffffffffffffffffffffffffffffffff16815260200190815260200160002060010181905550600960008981526020019081526020016000206001015487111561070d5786600960008a81526020019081526020016000206001018190555033600960008a815260200190815260200160002060040160006101000a81548173ffffffffffffffffffffffffffffffffffffffff021916908373ffffffffffffffffffffffffffffffffffffffff1602179055505b7f360d43592906a5460df7b695e84d2d0c4d4b29c343cdb9ff69fd7fa1ecb29a99886107388a6111d9565b338a60405161074a9493929190611eca565b60405180910390a15050505050505050565b80600480600481111561077257610771611bbb565b5b61077b836111d9565b600481111561078d5761078c611bbb565b5b146107d75761079b826111d9565b6040517fd07e89760000000000000000000000000000000000000000000000000000000081526004016107ce9190611eaf565b60405180910390fd5b60026009600085815260200190815260200160002060090160006101000a81548160ff0219169083600481111561081157610810611bbb565b5b0217905550600073ffffffffffffffffffffffffffffffffffffffff166009600085815260200190815260200160002060040160009054906101000a900473ffffffffffffffffffffffffffffffffffffffff1673ffffffffffffffffffffffffffffffffffffffff16036108b2576040517f93a5f3c700000000000000000000000000000000000000000000000000000000815260040160405180910390fd5b6000600960008581526020019081526020016000206002015403610902576040517f6c976dd700000000000000000000000000000000000000000000000000000000815260040160405180910390fd5b60008061092460096000878152602001908152602001600020600201546112cb565b91509150610968816009600088815260200190815260200160002060040160009054906101000a900473ffffffffffffffffffffffffffffffffffffffff16611308565b7f78f25bb1dd175524204d4cf9d8d0490199987db861fc9f2e4a629d9d2e43f2e285610993876111d9565b6009600089815260200190815260200160002060040160009054906101000a900473ffffffffffffffffffffffffffffffffffffffff1684866040516109dd959493929190611f0f565b60405180910390a15050505050565b806000600960008381526020019081526020016000206000015403610a3d576040517f35a71ca300000000000000000000000000000000000000000000000000000000815260040160405180910390fd5b816000806004811115610a5357610a52611bbb565b5b610a5c836111d9565b6004811115610a6e57610a6d611bbb565b5b14610ab857610a7c826111d9565b6040517fd07e8976000000000000000000000000000000000000000000000000000000008152600401610aaf9190611eaf565b60405180910390fd5b8333600a600083815260200190815260200160002060008273ffffffffffffffffffffffffffffffffffffffff1673ffffffffffffffffffffffffffffffffffffffff16815260200190815260200160002060000160009054906101000a900460ff1615610b52576040517f79e72c6d00000000000000000000000000000000000000000000000000000000815260040160405180910390fd5b6001600960008881526020019081526020016000206000016000828254610b799190611f91565b925050819055506009600087815260200190815260200160002060030154600960008881526020019081526020016000206002016000828254610bbc9190611f91565b9250508190555060405180604001604052806001151581526020016000815250600a600088815260200190815260200160002060003373ffffffffffffffffffffffffffffffffffffffff1673ffffffffffffffffffffffffffffffffffffffff16815260200190815260200160002060008201518160000160006101000a81548160ff02191690831515021790555060208201518160010155905050610c7860096000888152602001908152602001600020600301546114bf565b7fbe1008cdc58e311be2a6a335b4c907ee1e8d2bb0e88f857ca30c0805c0b73ef986610ca3886111d9565b33604051610cb393929190611fc5565b60405180910390a1505050505050565b610ccb611676565b610cd560006116fd565b565b60008060009054906101000a900473ffffffffffffffffffffffffffffffffffffffff16905090565b80600060096000838152602001908152602001600020600001541115610d52576040517f87aa7d5100000000000000000000000000000000000000000000000000000000815260040160405180910390fd5b604051806101600160405280600181526020016000815260200160025481526020016002548152602001600073ffffffffffffffffffffffffffffffffffffffff1681526020013373ffffffffffffffffffffffffffffffffffffffff16815260200160035442610dc39190611f91565b815260200160045460035442610dd99190611f91565b610de39190611f91565b815260200160055460045460035442610dfc9190611f91565b610e069190611f91565b610e109190611f91565b815260200160006004811115610e2957610e28611bbb565b5b815260200183815250600960008481526020019081526020016000206000820151816000015560208201518160010155604082015181600201556060820151816003015560808201518160040160006101000a81548173ffffffffffffffffffffffffffffffffffffffff021916908373ffffffffffffffffffffffffffffffffffffffff16021790555060a08201518160050160006101000a81548173ffffffffffffffffffffffffffffffffffffffff021916908373ffffffffffffffffffffffffffffffffffffffff16021790555060c0820151816006015560e0820151816007015561010082015181600801556101208201518160090160006101000a81548160ff02191690836004811115610f4657610f45611bbb565b5b021790555061014082015181600a015590505060405180604001604052806001151581526020016000815250600a600084815260200190815260200160002060003373ffffffffffffffffffffffffffffffffffffffff1673ffffffffffffffffffffffffffffffffffffffff16815260200190815260200160002060008201518160000160006101000a81548160ff02191690831515021790555060208201518160010155905050610ffa6002546114bf565b7ffac69218d604aa73b5bed690e8bb8bea0e6f1672eb10ac50ea0dfebf94fd324082611025846111d9565b6009600086815260200190815260200160002060050160009054906101000a900473ffffffffffffffffffffffffffffffffffffffff16600960008781526020019081526020016000206003015460096000888152602001908152602001600020600601546009600089815260200190815260200160002060070154600960008a8152602001908152602001600020600801546040516110cb9796959493929190611ffc565b60405180910390a15050565b600860009054906101000a900473ffffffffffffffffffffffffffffffffffffffff1681565b600a602052816000526040600020602052806000526040600020600091509150508060000160009054906101000a900460ff16908060010154905082565b60045481565b60035481565b60015481565b611155611676565b600073ffffffffffffffffffffffffffffffffffffffff168173ffffffffffffffffffffffffffffffffffffffff16036111c75760006040517f1e4fbdf70000000000000000000000000000000000000000000000000000000081526004016111be9190611b38565b60405180910390fd5b6111d0816116fd565b50565b60065481565b60008060048111156111ee576111ed611bbb565b5b6009600084815260200190815260200160002060090160009054906101000a900460ff16600481111561122457611223611bbb565b5b0361129f57600960008381526020019081526020016000206006015442111561129e57600960008381526020019081526020016000206007015442101561126e57600190506112c6565b600960008381526020019081526020016000206008015442101561129557600390506112c6565b600490506112c6565b5b6009600083815260200190815260200160002060090160009054906101000a900460ff1690505b919050565b6000806112da836001546117c1565b915081600660008282546112ee9190611f91565b925050819055508183611301919061206b565b9050915091565b6000600860009054906101000a900473ffffffffffffffffffffffffffffffffffffffff1673ffffffffffffffffffffffffffffffffffffffff166370a08231306040518263ffffffff1660e01b81526004016113659190611b38565b602060405180830381865afa158015611382573d6000803e3d6000fd5b505050506040513d601f19601f820116820180604052508101906113a691906120b4565b90506113d5600860009054906101000a900473ffffffffffffffffffffffffffffffffffffffff1683856117f2565b6000600860009054906101000a900473ffffffffffffffffffffffffffffffffffffffff1673ffffffffffffffffffffffffffffffffffffffff166370a08231306040518263ffffffff1660e01b81526004016114329190611b38565b602060405180830381865afa15801561144f573d6000803e3d6000fd5b505050506040513d601f19601f8201168201806040525081019061147391906120b4565b9050838183611482919061206b565b146114b9576040517f8e7572da00000000000000000000000000000000000000000000000000000000815260040160405180910390fd5b50505050565b6000600860009054906101000a900473ffffffffffffffffffffffffffffffffffffffff1673ffffffffffffffffffffffffffffffffffffffff166370a08231306040518263ffffffff1660e01b815260040161151c9190611b38565b602060405180830381865afa158015611539573d6000803e3d6000fd5b505050506040513d601f19601f8201168201806040525081019061155d91906120b4565b905061158d600860009054906101000a900473ffffffffffffffffffffffffffffffffffffffff16333085611871565b6000600860009054906101000a900473ffffffffffffffffffffffffffffffffffffffff1673ffffffffffffffffffffffffffffffffffffffff166370a08231306040518263ffffffff1660e01b81526004016115ea9190611b38565b602060405180830381865afa158015611607573d6000803e3d6000fd5b505050506040513d601f19601f8201168201806040525081019061162b91906120b4565b905082828261163a919061206b565b14611671576040517f8e7572da00000000000000000000000000000000000000000000000000000000815260040160405180910390fd5b505050565b61167e6118f3565b73ffffffffffffffffffffffffffffffffffffffff1661169c610cd7565b73ffffffffffffffffffffffffffffffffffffffff16146116fb576116bf6118f3565b6040517f118cdaa70000000000000000000000000000000000000000000000000000000081526004016116f29190611b38565b60405180910390fd5b565b60008060009054906101000a900473ffffffffffffffffffffffffffffffffffffffff169050816000806101000a81548173ffffffffffffffffffffffffffffffffffffffff021916908373ffffffffffffffffffffffffffffffffffffffff1602179055508173ffffffffffffffffffffffffffffffffffffffff168173ffffffffffffffffffffffffffffffffffffffff167f8be0079c531659141344cd1fd0a4f28419497f9722a3daafe3b4186f6b6457e060405160405180910390a35050565b600061271082846117d291906120e1565b10156117dd57600080fd5b6117ea83836127106118fb565b905092915050565b61186c838473ffffffffffffffffffffffffffffffffffffffff1663a9059cbb8585604051602401611825929190612123565b604051602081830303815290604052915060e01b6020820180517bffffffffffffffffffffffffffffffffffffffffffffffffffffffff83818316178352505050506119e9565b505050565b6118ed848573ffffffffffffffffffffffffffffffffffffffff166323b872dd8686866040516024016118a69392919061214c565b604051602081830303815290604052915060e01b6020820180517bffffffffffffffffffffffffffffffffffffffffffffffffffffffff83818316178352505050506119e9565b50505050565b600033905090565b60008083850290506000801985870982811083820303915050600081036119365783828161192c5761192b612183565b5b04925050506119e2565b808411611956576119556119506000861460126011611a8b565b611aa5565b5b600084868809905082811182039150808303925060008560000386169050808604955080840493506001818260000304019050808302841793506000600287600302189050808702600203810290508087026002038102905080870260020381029050808702600203810290508087026002038102905080870260020381029050808502955050505050505b9392505050565b600080602060008451602086016000885af180611a0c576040513d6000823e3d81fd5b3d925060005191505060008214611a27576001811415611a43565b60008473ffffffffffffffffffffffffffffffffffffffff163b145b15611a8557836040517f5274afe7000000000000000000000000000000000000000000000000000000008152600401611a7c9190611b38565b60405180910390fd5b50505050565b6000611a9684611ab7565b82841802821890509392505050565b634e487b71600052806020526024601cfd5b60008115159050919050565b6000819050919050565b611ad681611ac3565b82525050565b6000602082019050611af16000830184611acd565b92915050565b600073ffffffffffffffffffffffffffffffffffffffff82169050919050565b6000611b2282611af7565b9050919050565b611b3281611b17565b82525050565b6000602082019050611b4d6000830184611b29565b92915050565b600080fd5b6000819050919050565b611b6b81611b58565b8114611b7657600080fd5b50565b600081359050611b8881611b62565b92915050565b600060208284031215611ba457611ba3611b53565b5b6000611bb284828501611b79565b91505092915050565b7f4e487b7100000000000000000000000000000000000000000000000000000000600052602160045260246000fd5b60058110611bfb57611bfa611bbb565b5b50565b6000819050611c0c82611bea565b919050565b6000611c1c82611bfe565b9050919050565b611c2c81611c11565b82525050565b611c3b81611b58565b82525050565b600061016082019050611c57600083018e611acd565b611c64602083018d611acd565b611c71604083018c611acd565b611c7e606083018b611acd565b611c8b608083018a611b29565b611c9860a0830189611b29565b611ca560c0830188611acd565b611cb260e0830187611acd565b611cc0610100830186611acd565b611cce610120830185611c23565b611cdc610140830184611c32565b9c9b505050505050505050505050565b611cf581611ac3565b8114611d0057600080fd5b50565b600081359050611d1281611cec565b92915050565b60008060408385031215611d2f57611d2e611b53565b5b6000611d3d85828601611b79565b9250506020611d4e85828601611d03565b9150509250929050565b6000819050919050565b6000611d7d611d78611d7384611af7565b611d58565b611af7565b9050919050565b6000611d8f82611d62565b9050919050565b6000611da182611d84565b9050919050565b611db181611d96565b82525050565b6000602082019050611dcc6000830184611da8565b92915050565b611ddb81611b17565b8114611de657600080fd5b50565b600081359050611df881611dd2565b92915050565b60008060408385031215611e1557611e14611b53565b5b6000611e2385828601611b79565b9250506020611e3485828601611de9565b9150509250929050565b60008115159050919050565b611e5381611e3e565b82525050565b6000604082019050611e6e6000830185611e4a565b611e7b6020830184611acd565b9392505050565b600060208284031215611e9857611e97611b53565b5b6000611ea684828501611de9565b91505092915050565b6000602082019050611ec46000830184611c23565b92915050565b6000608082019050611edf6000830187611c32565b611eec6020830186611c23565b611ef96040830185611b29565b611f066060830184611acd565b95945050505050565b600060a082019050611f246000830188611c32565b611f316020830187611c23565b611f3e6040830186611b29565b611f4b6060830185611acd565b611f586080830184611acd565b9695505050505050565b7f4e487b7100000000000000000000000000000000000000000000000000000000600052601160045260246000fd5b6000611f9c82611ac3565b9150611fa783611ac3565b9250828201905080821115611fbf57611fbe611f62565b5b92915050565b6000606082019050611fda6000830186611c32565b611fe76020830185611c23565b611ff46040830184611b29565b949350505050565b600060e082019050612011600083018a611c32565b61201e6020830189611c23565b61202b6040830188611b29565b6120386060830187611acd565b6120456080830186611acd565b61205260a0830185611acd565b61205f60c0830184611acd565b98975050505050505050565b600061207682611ac3565b915061208183611ac3565b925082820390508181111561209957612098611f62565b5b92915050565b6000815190506120ae81611cec565b92915050565b6000602082840312156120ca576120c9611b53565b5b60006120d88482850161209f565b91505092915050565b60006120ec82611ac3565b91506120f783611ac3565b925082820261210581611ac3565b9150828204841483151761211c5761211b611f62565b5b5092915050565b60006040820190506121386000830185611b29565b6121456020830184611acd565b9392505050565b60006060820190506121616000830186611b29565b61216e6020830185611b29565b61217b6040830184611acd565b949350505050565b7f4e487b7100000000000000000000000000000000000000000000000000000000600052601260045260246000fdfea26469706673582212209459b296cba99cbf97c6f0929009aa1f6752e0477780911f590586b7ee9a5a0b64736f6c634300081c0033",
  "linkReferences": {},
  "deployedLinkReferences": {}
}