{
  "_format": "hh-sol-artifact-1",
  "contractName": "LearnWayFaucet",
  "sourceName": "contracts/token/LearnWayFaucet.sol",
  "abi": [
    {
      "inputs": [
        {
          "internalType": "address",
          "name": "_lwtAddress",
          "type": "address"
        }
      ],
      "stateMutability": "nonpayable",
      "type": "constructor"
    },
    {
      "inputs": [],
      "name": "AlreadyClaimed",
      "type": "error"
    },
    {
      "inputs": [
        {
          "internalType": "address",
          "name": "owner",
          "type": "address"
        }
      ],
      "name": "OwnableInvalidOwner",
      "type": "error"
    },
    {
      "inputs": [
        {
          "internalType": "address",
          "name": "account",
          "type": "address"
        }
      ],
      "name": "OwnableUnauthorizedAccount",
      "type": "error"
    },
    {
      "inputs": [
        {
          "internalType": "address",
          "name": "token",
          "type": "address"
        }
      ],
      "name": "SafeERC20FailedOperation",
      "type": "error"
    },
    {
      "anonymous": false,
      "inputs": [
        {
          "indexed": false,
          "internalType": "address",
          "name": "_cliamer",
          "type": "address"
        },
        {
          "indexed": false,
          "internalType": "uint256",
          "name": "_amount",
          "type": "uint256"
        }
      ],
      "name": "Claimed",
      "type": "event"
    },
    {
      "anonymous": false,
      "inputs": [
        {
          "indexed": true,
          "internalType": "address",
          "name": "previousOwner",
          "type": "address"
        },
        {
          "indexed": true,
          "internalType": "address",
          "name": "newOwner",
          "type": "address"
        }
      ],
      "name": "OwnershipTransferred",
      "type": "event"
    },
    {
      "inputs": [],
      "name": "claim",
      "outputs": [],
      "stateMutability": "nonpayable",
      "type": "function"
    },
    {
      "inputs": [],
      "name": "claimInterval",
      "outputs": [
        {
          "internalType": "uint256",
          "name": "",
          "type": "uint256"
        }
      ],
      "stateMutability": "view",
      "type": "function"
    },
    {
      "inputs": [],
      "name": "dailyClaim",
      "outputs": [
        {
          "internalType": "uint256",
          "name": "",
          "type": "uint256"
        }
      ],
      "stateMutability": "view",
      "type": "function"
    },
    {
      "inputs": [],
      "name": "drain",
      "outputs": [],
      "stateMutability": "nonpayable",
      "type": "function"
    },
    {
      "inputs": [
        {
          "internalType": "address",
          "name": "",
          "type": "address"
        }
      ],
      "name": "lastClaimed",
      "outputs": [
        {
          "internalType": "uint256",
          "name": "",
          "type": "uint256"
        }
      ],
      "stateMutability": "view",
      "type": "function"
    },
    {
      "inputs": [],
      "name": "lwt",
      "outputs": [
        {
          "internalType": "contract IERC20",
          "name": "",
          "type": "address"
        }
      ],
      "stateMutability": "view",
      "type": "function"
    },
    {
      "inputs": [],
      "name": "owner",
      "outputs": [
        {
          "internalType": "address",
          "name": "",
          "type": "address"
        }
      ],
      "stateMutability": "view",
      "type": "function"
    },
    {
      "inputs": [],
      "name": "renounceOwnership",
      "outputs": [],
      "stateMutability": "nonpayable",
      "type": "function"
    },
    {
      "inputs": [
        {
          "internalType": "uint256",
          "name": "_amt",
          "type": "uint256"
        }
      ],
      "name": "setDailyClaim",
      "outputs": [],
      "stateMutability": "nonpayable",
      "type": "function"
    },
    {
      "inputs": [
        {
          "internalType": "address",
          "name": "newOwner",
          "type": "address"
        }
      ],
      "name": "transferOwnership",
      "outputs": [],
      "stateMutability": "nonpayable",
      "type": "function"
    }
  ],
  "bytecode": "0x6080604052681dd0c885f9a0d800006001556301e1338060025534801561002557600080fd5b50604051610ca6380380610ca683398181016040528101906100479190610238565b33600073ffffffffffffffffffffffffffffffffffffffff168173ffffffffffffffffffffffffffffffffffffffff16036100ba5760006040517f1e4fbdf70000000000000000000000000000000000000000000000000000000081526004016100b19190610274565b60405180910390fd5b6100c98161011160201b60201c565b5080600460006101000a81548173ffffffffffffffffffffffffffffffffffffffff021916908373ffffffffffffffffffffffffffffffffffffffff1602179055505061028f565b60008060009054906101000a900473ffffffffffffffffffffffffffffffffffffffff169050816000806101000a81548173ffffffffffffffffffffffffffffffffffffffff021916908373ffffffffffffffffffffffffffffffffffffffff1602179055508173ffffffffffffffffffffffffffffffffffffffff168173ffffffffffffffffffffffffffffffffffffffff167f8be0079c531659141344cd1fd0a4f28419497f9722a3daafe3b4186f6b6457e060405160405180910390a35050565b600080fd5b600073ffffffffffffffffffffffffffffffffffffffff82169050919050565b6000610205826101da565b9050919050565b610215816101fa565b811461022057600080fd5b50565b6000815190506102328161020c565b92915050565b60006020828403121561024e5761024d6101d5565b5b600061025c84828501610223565b91505092915050565b61026e816101fa565b82525050565b60006020820190506102896000830184610265565b92915050565b610a088061029e6000396000f3fe608060405234801561001057600080fd5b506004361061009e5760003560e01c80638da5cb5b116100665780638da5cb5b146101235780639890220b14610141578063a63ed2e41461014b578063f040d6a614610169578063f2fde38b146101855761009e565b8063013eba92146100a35780630b433a12146100d357806349567fd0146100f15780634e71d92d1461010f578063715018a614610119575b600080fd5b6100bd60048036038101906100b891906107a6565b6101a1565b6040516100ca91906107ec565b60405180910390f35b6100db6101b9565b6040516100e891906107ec565b60405180910390f35b6100f96101bf565b60405161010691906107ec565b60405180910390f35b6101176101c5565b005b6101216102fb565b005b61012b61030f565b6040516101389190610816565b60405180910390f35b610149610338565b005b610153610411565b6040516101609190610890565b60405180910390f35b610183600480360381019061017e91906108d7565b610437565b005b61019f600480360381019061019a91906107a6565b610449565b005b60036020528060005260406000206000915090505481565b60025481565b60015481565b600254600360003373ffffffffffffffffffffffffffffffffffffffff1673ffffffffffffffffffffffffffffffffffffffff16815260200190815260200160002054426102139190610933565b101561024b576040517f646cf55800000000000000000000000000000000000000000000000000000000815260040160405180910390fd5b42600360003373ffffffffffffffffffffffffffffffffffffffff1673ffffffffffffffffffffffffffffffffffffffff168152602001908152602001600020819055506102be600460009054906101000a900473ffffffffffffffffffffffffffffffffffffffff16336001546104cf565b7fd8138f8a3f377c5259ca548e70e4c2de94f129f5a11036a15b69513cba2b426a336001546040516102f1929190610967565b60405180910390a1565b61030361054e565b61030d60006105d5565b565b60008060009054906101000a900473ffffffffffffffffffffffffffffffffffffffff16905090565b61034061054e565b61040f600460009054906101000a900473ffffffffffffffffffffffffffffffffffffffff1661036e61030f565b600460009054906101000a900473ffffffffffffffffffffffffffffffffffffffff1673ffffffffffffffffffffffffffffffffffffffff166370a08231306040518263ffffffff1660e01b81526004016103c99190610816565b602060405180830381865afa1580156103e6573d6000803e3d6000fd5b505050506040513d601f19601f8201168201806040525081019061040a91906109a5565b6104cf565b565b600460009054906101000a900473ffffffffffffffffffffffffffffffffffffffff1681565b61043f61054e565b8060018190555050565b61045161054e565b600073ffffffffffffffffffffffffffffffffffffffff168173ffffffffffffffffffffffffffffffffffffffff16036104c35760006040517f1e4fbdf70000000000000000000000000000000000000000000000000000000081526004016104ba9190610816565b60405180910390fd5b6104cc816105d5565b50565b610549838473ffffffffffffffffffffffffffffffffffffffff1663a9059cbb8585604051602401610502929190610967565b604051602081830303815290604052915060e01b6020820180517bffffffffffffffffffffffffffffffffffffffffffffffffffffffff8381831617835250505050610699565b505050565b61055661073b565b73ffffffffffffffffffffffffffffffffffffffff1661057461030f565b73ffffffffffffffffffffffffffffffffffffffff16146105d35761059761073b565b6040517f118cdaa70000000000000000000000000000000000000000000000000000000081526004016105ca9190610816565b60405180910390fd5b565b60008060009054906101000a900473ffffffffffffffffffffffffffffffffffffffff169050816000806101000a81548173ffffffffffffffffffffffffffffffffffffffff021916908373ffffffffffffffffffffffffffffffffffffffff1602179055508173ffffffffffffffffffffffffffffffffffffffff168173ffffffffffffffffffffffffffffffffffffffff167f8be0079c531659141344cd1fd0a4f28419497f9722a3daafe3b4186f6b6457e060405160405180910390a35050565b600080602060008451602086016000885af1806106bc576040513d6000823e3d81fd5b3d9250600051915050600082146106d75760018114156106f3565b60008473ffffffffffffffffffffffffffffffffffffffff163b145b1561073557836040517f5274afe700000000000000000000000000000000000000000000000000000000815260040161072c9190610816565b60405180910390fd5b50505050565b600033905090565b600080fd5b600073ffffffffffffffffffffffffffffffffffffffff82169050919050565b600061077382610748565b9050919050565b61078381610768565b811461078e57600080fd5b50565b6000813590506107a08161077a565b92915050565b6000602082840312156107bc576107bb610743565b5b60006107ca84828501610791565b91505092915050565b6000819050919050565b6107e6816107d3565b82525050565b600060208201905061080160008301846107dd565b92915050565b61081081610768565b82525050565b600060208201905061082b6000830184610807565b92915050565b6000819050919050565b600061085661085161084c84610748565b610831565b610748565b9050919050565b60006108688261083b565b9050919050565b600061087a8261085d565b9050919050565b61088a8161086f565b82525050565b60006020820190506108a56000830184610881565b92915050565b6108b4816107d3565b81146108bf57600080fd5b50565b6000813590506108d1816108ab565b92915050565b6000602082840312156108ed576108ec610743565b5b60006108fb848285016108c2565b91505092915050565b7f4e487b7100000000000000000000000000000000000000000000000000000000600052601160045260246000fd5b600061093e826107d3565b9150610949836107d3565b925082820390508181111561096157610960610904565b5b92915050565b600060408201905061097c6000830185610807565b61098960208301846107dd565b9392505050565b60008151905061099f816108ab565b92915050565b6000602082840312156109bb576109ba610743565b5b60006109c984828501610990565b9150509291505056fea2646970667358221220b753d6bf4ed87b56b0c3e2eb9e47ec4dfb269393ea28f8ffe4977625b4fa548064736f6c634300081c0033",
  "linkReferences": {},
  "deployedLinkReferences": {}
}